:1000000000000320D101000005340000BD330000D2
:10001000BD330000BD330000BD330000BD33000020
:10002000BD330000BD330000BD33000005340000C7
:1000300005340000BD3300007D460000814700000C
:1000400005340000053400000534000005340000CC
:1000500005340000053400000534000005340000BC
:1000600005340000053400000534000005340000AC
:10007000053400000534000005340000053400009C
:10008000053400000534000005340000053400008C
:10009000053400000534000005340000053400007C
:1000A000053400000534000005340000053400006C
:1000B000053400000534000005340000E94C000060
:1000C00005340000154E000005340000414F0000CB
:1000D00005340000395000000534000005340000EC
:1000E000053400000534000005340000053400002C
:1000F000053400000534000005340000053400001C
:10010000053400000534000005340000053400000B
:1001100005340000313900000534000005340000CA
:1001200005340000053400000534000005340000EB
:1001300005340000053400000534000005340000DB
:100140000534000005340000315100000534000082
:1001500005340000053400000534000005340000BB
:1001600005340000053400000534000005340000AB
:10017000053400000534000005340000053400009B
:10018000053400000534000005340000053400008B
:100190000534000005340000295200000534000039
:1001A000053400000534000005340000053400006B
:1001B000053400000534000005340000053400005B
:1001C000053400000534000005340000053400004B
:1001D0005C4B4CF2205210B51A804DF628121A8052
:1001E00000BF00BF03F012F9574B4FF030621A60A6
:1001F000564A9A60564ADA60564B4FF470021A60BB
:10020000554B564A1A60564A136813F4807304D14A
:1002100054490B604FF4A8531360534B1A781107DD
:1002200003D51A7842F008021A70504B5049AA229E
:100230001A70504A504B8B4204D252F8040F43F8C4
:10024000040BF8E74D4B4E4900228B4202D243F893
:10025000042BFAE74B494C4A002352F8230041F89B
:1002600023000133742BF8D1484B494A802103F80D
:10027000011B9342FBD1474B424A1A60464B8A22EC
:100280001A70A3F5805324225A70A0221A709A790A
:100290009207FCD59A79D406FCD4404A937903F0AE
:1002A0000C03082BFAD13E4B60221A7002331A78E5
:1002B000802AFCD1394B01221A715D225A719A7938
:1002C0009006FCD59979354A4906FBD5354B364918
:1002D00019600021596020231370937903F00C03F7
:1002E0000C2BFAD1314B324A1A60324B324A1A6027
:1002F00000225A60072243F8042C304AC3F80C2D20
:1003000062B603F0A7F9174B1B68DA0705D52C482E
:1003100003F030F92B4B2C4A1A602C4B1B785B06F0
:1003200009D5284C284B22689A4204D1244803F06E
:1003300021F90023236005F0D1FC03F06DF804F0EF
:1003400027FAFEE70E20054030800440823F04007B
:100350000100002B88ED00E0002008E0030000858C
:1003600010D0034014D0034002D0074000E0074003
:10037000F811FF1FE8AA00003007FF1FF811FF1F48
:100380004819FF1F0002FF1F0000000000E400E00A
:1003900064E400E008ED00E0005006400040064044
:1003A00001E007404480044000000602048004404D
:1003B000C010070014E000E01FBF02000000202072
:1003C00007E6235B1CE00340A5C3945A00F00740F6
:1003D000FFFFFFFFFFFFFFFFFFFFFFFFFFFFFFFF2D
:1003E000FFFFFFFFFFFFFFFFFFFFFFFFFFFFFFFF1D
:1003F000FFFFFFFFFFFFFFFFFFFFFFFFFFFFFFFF0D
:10040000FFFFFFFFFFFFFFFFFFFFFFFFDEF9FFFF23
:1004100010B5054C237833B9044B13B10448AFF33E
:1004200000800123237010BDF811FF1F00000000A1
:10043000E4AA0000084B10B51BB108490848AFF307
:1004400000800848036803B910BD074B002BFBD0A0
:10045000BDE81040184700BF00000000FC11FF1F5E
:10046000E4AA0000F811FF1F0000000030B5194A8F
:1004700019491A4D1A4C83B01378002BFCD00B7815
:100480009B07F9D02B6820681B1A182BF4D9002180
:10049000172003F087F8134B186805F0E9F8124BA2
:1004A000044618680D4605F0E3F822462B46CDE9D0
:1004B00000010E490E4804F0A3F916210D4803F07F
:1004C00077FF0B4804F084F903B0BDE8304000F03A
:1004D0007FB900BFC015FF1FD815FF1FDC14FF1F19
:1004E0004019FF1F3C07FF1F3407FF1F64A10000D6
:1004F0009807FF1F9CA1000000B50C4B83B01B6840
:1005000001939DED010A0020B8EE400A00F0CEF9FB
:10051000074A084B92ED000AD3ED007A80EE270AD5
:10052000012000F0C3F903B05DF804FBDC14FF1FE9
:100530002412FF1F2812FF1F2DE9F0472DED028B1B
:10054000172088B002F0BCFE844B854AD3ED006AC8
:10055000D2ED007A834C844D94ED007A834E844F23
:1005600006EE100AB8EEC66A1720E6EE267AB7EE57
:10057000008A77EE877AC4ED007A02F0A1FE07EEDA
:10058000100AD5ED006AD6ED007A3B78B8EEC77A4E
:1005900037EE888A37EE267A86ED008A85ED007A76
:1005A0004BB3DFF82482DFF82492D8F800300493AC
:1005B000704A049BD9F8001012685B1A93420FD35B
:1005C0006D4B1B78002B31D1FFF796FFD8F8003028
:1005D0000693069AC9F800200023336023602B603D
:1005E000D8F8003065490793654A079B0968126887
:1005F0005B1A934217D203F0B1FE20B908B0BDECEC
:10060000028BBDE8F08703F06DFE63380F2800F21F
:100610009080DFE800F0598E8E8E8E638E8E8E8EE7
:10062000468E8E328E2800F083FAE4E7C7EE087A11
:10063000D8F80030059317EE900A05F019F8D4EDBC
:10064000007ADDF814A087EE887ACDE9020117EE72
:10065000100A05F00DF85246CDE9000149494A4813
:1006600004F0CEF8B0E71021484803F0A1FE464858
:1006700004F0AEF800F0D8F9C0E70F21444803F0C9
:1006800097FE3B78002B64D11521424803F090FE81
:100690003D4804F09DF8384A137883F00103137045
:1006A000ACE70B213C4803F083FE3B78002B48D19C
:1006B00006213A4803F07CFE334804F089F83B7881
:1006C00083F001033B7099E71121354803F070FE78
:1006D0002D4804F07DF800F01DF98FE71321314813
:1006E00003F066FE284804F073F853212E4803F007
:1006F0005FFE254804F06CF823212C4803F058FED7
:10070000214804F065F81B21294803F051FE1E48DA
:1007100004F05EF84D21274803F04AFE1A4804F021
:1007200057F81721244803F043FE174804F050F807
:1007300064E73721214803F03BFE134804F048F8F2
:100740005CE708211E4803F033FE0F4804F040F830
:10075000B5E704211B4803F02BFE95E73C07FF1F7C
:100760003407FF1F2412FF1F1812FF1F2812FF1F3C
:100770001412FF1F4007FF1F2C12FF1F1C12FF1F28
:100780003807FF1FB4A100009807FF1FC0A1000099
:1007900008A2000020A20000E8A1000000A20000C2
:1007A000D4A1000038A200004CA20000A0A20000CA
:1007B000C4A20000E0A2000030A3000048A3000093
:1007C000F4A1000018A20000DC14FF1F2012FF1F7C
:1007D00030B5FE2189B0294800F068FB002845D0DB
:1007E000274A2849284D294C1378002BFCD00B7838
:1007F0009B07F9D02B6820681B1A182BF4D90A2103
:10080000234803F0D5FD234803F0E2FF224B2348A1
:1008100000221A605A600B2103F0CAFD1D4803F044
:10082000D7FF1F4B15491A686846132300F0EAFBEF
:1008300008AA1C48029B12F8144D9DF8041083600E
:100840000473017100F10D031A3012F8011F03F84F
:10085000011B8342134CF8D1079BE361684600F00B
:1008600087FA204600F088FA09B030BD1B210E48F7
:1008700003F09EFD074803F0ABFFB1E75C12FF1FDA
:10088000C015FF1FD815FF1FDC14FF1F4019FF1FE5
:100890009CA300009807FF1F3012FF1FA8A30000B1
:1008A0004407FF1F3C12FF1F80A3000038B52DED49
:1008B000028BB0EE408A88B1144C082003F070FF20
:1008C0002268A0600023436080ED008A0F4BA2B134
:1008D000BDEC028B5A685060586038BD05460B4C21
:1008E000082003F05DFF2368094A45600260A060AC
:1008F00043B1636858606060DFE7BDEC028B18604D
:10090000586038BD20606060D7E700BF3012FF1F1D
:10091000F902954F30B599B00123354A35496846FB
:1009200000F070FB08A800F015FA6946012210A833
:1009300000F0EAFB129A9DF84C309DF844100A92A0
:100940008DF82C308DF8241013AA0DF12D030DF124
:100950003A0412F8011F03F8011BA342F9D1179BB7
:100960000F9310A800F004FA08A800F013FA80B35F
:100970000B21214803F01CFD08A800F0FBF90546F7
:1009800006F01EF80146284603F012FD1B4803F04E
:100990001FFF08A800F0EEF90146164800F0A6FB7C
:1009A0000122694610A800F0AFFB129A9DF84C3066
:1009B0009DF844100A928DF82C308DF8241013AA5B
:1009C0000DF12D0312F8011F03F8011BA342F9D109
:1009D000C5E71F210A4803F0EBFC084803F0F8FEC6
:1009E00008A800F0C5F9684600F0C2F919B030BD9A
:1009F000B4A300005C12FF1FB8A300009807FF1FFC
:100A0000C4A3000010B5054C204600F0A3F9204611
:100A1000034A0449BDE8104005F04EB93C12FF1FDF
:100A20003007FF1F710D000010B5194B19491A68E6
:100A300088B06846012300F0E5FA08AA1648029B30
:100A400012F8144D9DF8041083600473017100F1D5
:100A50000D031A3012F8011F03F8011B83420E49DF
:100A6000F8D1079BCB61684600F082F905E00A489F
:100A700000F008F9C0B203F01FFD074800F0E4F8E9
:100A80000028F4D1044800F077F908B010BD00BF89
:100A90004407FF1F5C12FF1F3C12FF1F08B52DED1E
:100AA000028BB0EE408A032835D8DFE800F0070259
:100AB0002B15022219491A4800F0D2F818EE100A34
:100AC00004F0D6FDBDEC028B41EC100BBDE80840F4
:100AD0000521134803F0E4BE18221249104800F023
:100AE000BFF818EE100A04F0C3FD41EC100B05210D
:100AF0000B4803F0D5FEBDEC028B0948BDE8084069
:100B000003F066BEBDEC028B022207490448BDE833
:100B1000084000F0A5B8BDEC028B08BD58A4000049
:100B20003C12FF1F60A400005CA40000FFFFFFFF59
:100B300030B52DED028B364B36491A6889B06846C0
:100B4000132300F05FFA08AA3348029B12F8144DF1
:100B50009DF8041083600473017100F10D031A30D5
:100B600012F8011F03F8011B83422B49F8D1079BA0
:100B7000CB616846294D9FED2A8A00F0F9F82C4692
:100B80002B680120ABB1D3ED007AF4EE487AF1EE98
:100B900010FAB0EE670A13D0FFF780FF2068A0605C
:100BA00043682360082103F0FDFD2B680120002B22
:100BB000E9D1194800F0E0F809B0BDEC028B30BD76
:100BC00002221849144800F04BF82068A0604368DE
:100BD0002360082103F0E6FD236883B1186804F060
:100BE00047FD41EC100B05210B4803F059FE286826
:100BF000A86043682B60082103F0D4FDC0E79FED97
:100C0000020BF0E7AFF300800000000000000000DE
:100C10004407FF1F5C12FF1F3C12FF1F3012FF1F13
:100C2000F902954F5CA4000000207047704700BF98
:100C300010B582B002AB026803F8011D5468194672
:100C40000122A04702B010BDC06938B18369C068F5
:100C500047F6FF72181A904228BF1046704700BF2F
:100C6000C36910B504463BB100201871E06901F07A
:100C7000BDFDE3691B791BB101232371002010BD69
:100C800010BD00BFC06978B100B583B001220DF17D
:100C9000070101F025FB01280CBF9DF807004FF06C
:100CA000FF3003B05DF804FB4FF0FF30704700BF2A
:100CB000C369C3B110B582B00446012218460DF1D4
:100CC000070101F00DFB012803D04FF0FF3002B007
:100CD00010BDE0699DF80740C168013901F0DEFBF5
:100CE000204602B010BD1846704700BFC06908B169
:100CF00001F006BC704700BF2DE9F04105464FF4F6
:100D00007A731348AB60002328602B712B73242067
:100D10000C46904605F00AF8E861B0B1064604F1C9
:100D2000200E20686168A268E36837460FC7103458
:100D300074453E46F5D12068386041460C2205F1E5
:100D40000D0005F0ABFE00236B762846BDE8F08170
:100D500090A400004FF47A7204498260002201607E
:100D600002710273C2614273704700BF90A4000019
:100D7000704700BF0D307047C36953B110B50446CA
:100D8000184601F01BFAE06904F0D8FF0023E36184
:100D900010BD7047C06918B18079003018BF0120BC
:100DA000704700BF0AB90120704708B501F006FD81
:100DB000003018BF012008BDF0B50E68835D2F2BF1
:100DC00008BF0136841902F1FF3E002523782F2B3E
:100DD000274604F1010408D03BB101350C2D06F182
:100DE00001060EF8013FF1D18719002353553B78D6
:100DF0002F2B04BF013687190E603878003018BFDA
:100E00000120F0BD2DE9F04F99B08846264D06959A
:100E100000218DF81C1083469246994644468DF871
:100E20001E108DF840108DF8421001910F9506AEFE
:100E300005E001F0C3F9FDB1234634461E4602AA7F
:100E400001A95846FFF7B8FF80F00102D2B24B4625
:100E500002A905462046D04721460746012302AA9B
:100E600070B13046ADB101F07FFC444505462046E7
:100E7000DFD10DB10FACDFE7002019B0BDE8F08F76
:100E80004445F9D0204601F099F9384619B0BDE83B
:100E9000F08F444506D0204601F090F9012019B0AA
:100EA000BDE8F08F0120E8E7B4A40000FE2938B5C2
:100EB000054617D00A46012100F06EFE03460BB925
:100EC000002038BD2C1D20460122294601F07EFF5E
:100ED00098B1214605F12C0001F0DAF9003018BF75
:100EE000012038BD017000F045FA044600F030FAE8
:100EF000B4FA84F35B09A870E1E70246294620466C
:100F000001F064FF0028E4D1002038BD2DE9F04F46
:100F100099B04FF00008DFF8E8A08DF81C808146FA
:100F2000043106A8934601938DF81E808DF8408009
:100F30008DF84280CDF818A0CDF83CA001F0A8F9BA
:100F400006AE5D460FAF2F21284605F0B7FC441BC7
:100F5000E4B2294608B32B782F2B02A81BD00C2C07
:100F600028BF0C24224605F099FD18AB23443846CF
:100F700003F8588C01F022F9012302AA31463846C1
:100F800001F0F2FB88B3304601F018F933462544EE
:100F90003E461F46D7E70135D5E70198317972798A
:100FA000B379B468377DCBEB05050560F06835692A
:100FB00089F8041089F80520B16989F80630F269CA
:100FC000336AC9F80C004846C9F800A0C9F80840BF
:100FD000C9F8105089F81470C9F81810C9F81C2005
:100FE000C9F8203019B0BDE8F08F89F8040089F8FD
:100FF00006004846C9F800A019B0BDE8F08F00BF50
:10100000B4A40000F0B59DB005461F4601A86B468C
:101010001446FFF77BFF009AA35C1444002B42D0D8
:101020009DF80A202F4E0A9600238DF82C308DF85B
:101030002E30002A31D00AA83B46224601A901F0F1
:1010400093FB50B301A801F0B9F817F0060F43D194
:101050009DF82C700C9B9DF82DE0139622469DF870
:101060002E408DF850708DF8524015930D990E98C2
:101070009DF83C70109E119C129B8DF851E01691CA
:10108000179013A928468DF8607019961A941B932F
:10109000FFF732FE28461DB0F0BD2846FFF75AFE86
:1010A00028461DB0F0BD9DF808700E4E9DF8094011
:1010B0009DF80A30039A8DF8507013968DF85140C0
:1010C0008DF852301592049905989DF81870079E76
:1010D000089C099B044AD2E70AA8109901F0DEF99E
:1010E000B6E700BFB4A40000B4A3000010B40C46DF
:1010F000002300F12C01034A20465DF8044BFFF762
:1011000081BE00BFA50D0000F0B505469FB00C469E
:10111000164604A9E06901F07FF9002845DD9DF835
:101120001030002B41D0E52BF3D02E2BF1D09DF8C1
:101130001B3003F0080303F0FF02002BE9D104A8E1
:1011400069461D4F8DF834208DF836200C9701F03C
:1011500045F833466A46E1690CA801F005FB20B367
:101160009DF835609DF836400E9B0F9910989DF8BC
:1011700034E015978DF859609DF84470129E8DF8F3
:101180005A401793139C149B189119906A4615A9FD
:1011900028468DF858E08DF868701B961C941D93B6
:1011A000FFF7AAFD28461FB0F0BD2846FFF7D2FD85
:1011B00028461FB0F0BD00BFB4A40000064B074A8C
:1011C000DA620221002259609A7083F8242083F8A1
:1011D000302083F8322070475C12FF1FB4A4000057
:1011E00010B4114C114B226811491340184322F0DE
:1011F000080240F46020226020600B681C0706D4BF
:101200000C4B01E0013B02D00A681207FAD5064BED
:10121000094A5DF8044B40F008001860136843F475
:1012200080131360704700BF2C100B400700F0FFC5
:1012300024100B40FFFF0F0030100B402149224AC1
:101240000B6843F080030B6011461368DB07FCD486
:101250000B689B07F9D41D4B30B44FF08072194DC9
:10126000186000E0A2B12968194B164C0B40013AF6
:10127000002BF7D062B1012B0AD1236813F0800F45
:1012800023680FD043F001132360032030BC704764
:101290000C4A136843F4702343F0010313600120E8
:1012A00030BC704713F4803305D0236843F001133A
:1012B00023600520F4E7226842F00102184622600C
:1012C000EEE700BF30100B4024100B400C100B4019
:1012D00001000E0070B50D4D0D480E4E00232B6021
:1012E000FFF7ACFF6324034606E04BB92B60FFF722
:1012F000A5FF013C034605D0326805485207F4D4E7
:10130000184670BD002808BF052070BD08100B40AE
:101310000000DB0C24100B4070B5094C002305467F
:1013200023600848FFF78AFF00B170BD064E0748EA
:1013300033682560FFF782FF0028F6D1336870BD5F
:1013400008100B4000001A3710100B400000022953
:10135000074B1A784AB99A782AB15B78002B0CBFF0
:10136000022003207047012070470020704700BF13
:10137000B012FF1F2DE9F047674D684E2B68684F8C
:101380006849694C69486A4ADFF8C8E143F40033A8
:101390002B60336843F4005333603B6843F002032F
:1013A0003B600B6843F002030B60236805F59F4523
:1013B00006F59F4607F59F4701F5D12123F001036C
:1013C000236001F2EC7140F2031358355436543760
:1013D00003600024574813602C600A4633603B606A
:1013E000CEF800300860136813F08073FBD1524CC4
:1013F000524A5348534923604FF481354FF010133C
:10140000282405600C604FF487501360FFF7E8FE56
:101410004D4A13689C07FCD1454EDFF810E14B4C58
:101420004B4A4C494C4F4D4D4D4840F24343CEF84A
:10143000003033604FF48866266013604FF6FF7605
:10144000484C3B6002F5C8220B6020322E604FF4FE
:10145000FA710460136843F00063136013681801A5
:10146000FCD40139F6D13D4A3748136843F0800374
:1014700013600368DA0308D43B4B0220597099705B
:10148000187059609960BDE8F087374C374E21706D
:101490006170A170084631606160A160FFF7CEFE07
:1014A00068B9334D33482B684FF4D5733360FFF779
:1014B000C5FE40B92B682B68B3F5D57F29D0012034
:1014C0002070BDE8F0870528F9D10020FFF724FF40
:1014D0000028F4D1264B1A6812F4401F58D06278C5
:1014E000254FDFF89880002A05461E4608BF4FF4B6
:1014F000401704E03268002A42DB454546D03846B2
:10150000FFF70AFF01351A4B0028F3D00120BDE890
:10151000F08701236370D8E73080044038800440AE
:101520003C8004404080044000D0004000D0044093
:1015300004D0044000800001C0100B4044100B4058
:1015400004100B4028100B4024100B4008D004401E
:101550000CD0044014D0044010D0044030100B4094
:1015600034100B40BB007F11B012FF1F08100B405E
:1015700010100B4000001A0800003040A086010047
:10158000554A954202D01B685B0001D4002363706A
:10159000524E534800233360FFF750FE03460028A5
:1015A0008DD1504D50482A683360FFF747FE002820
:1015B00085D12B682B684D484D4D1B0C1B043360A7
:1015C0006360FFF73BFE00287FF479AF494B4A493F
:1015D0001A68120EEA700A6812F4400F71D1196885
:1015E00046481B68026800689B0203F4406343EAB4
:1015F0009253C0F3C2105A1CC1F30321831C093952
:1016000002FA03F38B40AB60344E636833603C48AE
:10161000374FFFF713FE00287FF451AF314D3948A3
:101620002B684FF400733360FFF708FE00287FF447
:1016300046AF7B682A6834483360FFF7FFFD002817
:101640007FF43DAF02232A6830483360FFF7F6FD90
:1016500000287FF434AF2E4B2A681A68DFF8B8A050
:10166000DFF8B890DFF8B8802A4C22F006021A6042
:101670001A68A6F5C726A6F2FC76A5F5C82542F09D
:1016800002021A6040F20313CAF80030C9F80030B1
:10169000C8F8000033604FF498702B602360FFF7A8
:1016A0009FFD40F243434FF48862CAF80030C9F806
:1016B0000030C8F8002033602B6023603878BDE824
:1016C000F08701220D4BAA701B68C3F31523134446
:1016D0009B02AB6098E700BFA086010008100B409A
:1016E0000000090210100B4000001A030000090955
:1016F000B012FF1F18100B401C100B4014100B40B1
:1017000000001B0700001A1000001A3700001A061C
:1017100028100B4014D0044000D0044004D00440F2
:1017200008D00440F8B5384B1A780AB10320F8BD48
:101730005B78064603B94902344D354C354B364883
:101740004FF6FF774FF481322F6021601A60FFF768
:1017500075FD0028EBD1314B31491B681C3406F173
:10176000400206F510702B68284F43F0200613F452
:10177000E00F2E603ED123681E05FCD50B6842F8B1
:10178000403C0B6842F83C3C0B6842F8383C0B6824
:1017900042F8343C0B6842F8303C0B6842F82C3C71
:1017A0000B6842F8283C0B6842F8243C0B6842F86E
:1017B000203C0B6842F81C3C0B6842F8183C0B6854
:1017C00042F8143C0B6842F8103C0B6842F80C3CA1
:1017D0000B6842F8083C0B6842F8043C40328242F5
:1017E000C1D1002009490B68084A9B07FBD50D4B66
:1017F0001360F8BD43F4E00343F020033B60FFF7C0
:1018000069FD0120EEE700BFB012FF1F30100B4052
:1018100008100B4004100B4010003A1110100B4040
:1018200020100B4022000001F8B52B4B1A780AB1AA
:101830000320F8BD5B78044603B94902274D284EC2
:10184000284B29484FF6FF774FF481322F603160E3
:101850001A60FFF7F3FC0028EBD1244B24491B68E6
:101860002E4604F500772B681C4AD806FBD5336852
:1018700013F4E00F1AD104F1400254F8043B0B605A
:10188000A242FAD12B68DFF854E043F010032B603A
:101890002B6813F4E00013D19742E4D10F490B6891
:1018A0000E4A9B07FBD5134B1360F8BD136843F436
:1018B000E00343F010031360FFF70CFD0120EDE798
:1018C000DEF8003043F4E00343F01003CEF80030BC
:1018D000FFF700FD0120E1E7B012FF1F30100B40C1
:1018E00008100B4004100B4000003A1810100B4079
:1018F00020100B4012000001052822D8DFE800F07C
:1019000003030F151B09124B124A1A60124801F00B
:1019100087BB0F4B114A1A600F4801F081BB0C4B7B
:101920000F4A1A600C4801F07BBB094B0D4A1A6044
:10193000094801F075BB064B0B4A1A60064801F0D6
:101940006FBB034B094A1A60034801F069BB00BF33
:10195000C012FF1F000001B84C07FF1F0430003801
:101960000110003803200038010002380650013809
:1019700010B50121007801F00FFE114A1378C3B1B0
:101980001049CB7A00241846147093B1DA0703D5B6
:101990000D4AC869106018469C0703D50B4B0A6AAC
:1019A000C87A1A60420705D4030702D5084B8A6A31
:1019B0001A6010BD074B4A6AC87A1A60F4E700BF84
:1019C000C412FF1F4C07FF1F00E100E004E100E02C
:1019D0000CE100E008E100E0234B1A781AB100782E
:1019E000002101F0D9BD70B4204A2149D47A096898
:1019F00001251D70002C26D072B6D47AE607234646
:101A000006D51C4DD3682E683340D3612B60234626
:101A1000A50706D5184D14692E68D37A3440146290
:101A20002C605C0706D5154D54692E68D37A344076
:101A300054622C601B0705D5114C936925682B4017
:101A40009362236062B61368DA688A4207D00D4C4D
:101A50001C600D4AD96041F080441C611A60007816
:101A6000002170BC01F098BDC412FF1F4C07FF1F7E
:101A7000C012FF1F80E100E084E100E088E100E0A7
:101A80008CE100E001403F0000003F80F0B41248CC
:101A9000124A036882B016460093009F4FF000453B
:101AA000FF24136843F480631360D5625463D36AE0
:101AB000002BFCDAB36BDBB2FF2B09D00368019378
:101AC000019BDB1B8B42ECD3002002B0F0BC7047C3
:101AD000012002B0F0BC7047DC14FF1F00C00240C0
:101AE000F8B50D464FF4967116460446FFF7CEFF43
:101AF000284B1A684FF0004042F4806245F04001E4
:101B00001A60D8621A465963D36A002BFCDA21495D
:101B100018204FF000470A6826FA00F342F480626A
:101B2000DBB20A60CF624B63CB6A002BFCDA083869
:101B300010F1080FEFD155B3082D0CBF8721FF21FD
:101B4000144B1A684FF0004042F480621A60D86269
:101B50001A465963D36A002BFCDA0E4A0027164650
:101B60004FF00045FF21136843F480631360D56292
:101B70005163D36A002BFCDAB36BD8B21B066070DA
:101B800000D4F8BD0137B7F5807FECD1F8BD9521C1
:101B9000D6E700BF00C002402DE9F04300239D4E70
:101BA000027085B0837033680193054688461046FD
:101BB0000121019F01F0F0FC2878012101F0F2FCE5
:101BC0002878012101F0E8FC934A136843F480531C
:101BD00013600620FFF790FEDFF870E28F4B9EF84F
:101BE0000BC01A68BCF1000F2CD072B69EF80B1017
:101BF000C8070B4608D58A48DEF80C300468234035
:101C0000CEF81C3003600B468C0709D58548DEF8FA
:101C1000101004689EF80B302140CEF820100160AF
:101C2000580709D58048DEF8141004689EF80B3078
:101C30002140CEF824100160190700F1AB8062B694
:101C40009EF80BC0DEF80030D968914207D0774883
:101C500018607749DA6042F0804018611960754A6F
:101C60000A244FF00040FF21136843F4806313609F
:101C7000D0625163D36A002BFCDA013C14F0FF04FC
:101C8000F2D1BCF1000F21D01CF0010F05D06A4B3E
:101C9000DEF81C209EF80BC01A601CF0020F05D065
:101CA000664BDEF820209EF80BC01A601CF0040F73
:101CB00005D0634BDEF824209EF80BC01A601CF0A0
:101CC000080F03D05F4BDEF828201A602846FFF784
:101CD00083FE06E033680293029BDB1BB3F5FA6FC9
:101CE00051D8002211462846FFF7FAFE0128814606
:101CF0006870EFD14FF4D57208212846FFF7F0FE47
:101D0000430726D585F802904FF0000906E03368B6
:101D10000393039BDB1BB3F5FA6F34D80022372102
:101D20002846FFF7DDFE4A4629212846FFF7D8FE60
:101D300068700028EBD1AB78022B39D02846FFF72A
:101D400017FE4046FFF7D8FD0124204605B0BDE848
:101D5000F083384A042194464FF0004EFF20136868
:101D600043F480631360C2F82CE05063D36A002B05
:101D7000FCDADCF838300139DBB211F0FF016B70AE
:101D8000EDD1AA2B0FD02846FFF7F2FD204605B073
:101D9000BDE8F0832C49DEF8183008680340CEF81F
:101DA00028300B604BE70223AB704FF08049B5E75A
:101DB00002463A212846FFF793FE0028E3D11D4B47
:101DC0001A684FF0004442F48062FF201A601946FE
:101DD000DC625863CB6A174A002BFBDA936B154A17
:101DE00003F0C003C02B04BF0323AB7003211646CE
:101DF0004FF00044FF20136843F480631360D46203
:101E00005063D36A002BFCDA013911F0FF01B36B88
:101E1000F1D193E7DC14FF1F3C800440C012FF1F88
:101E200080E100E084E100E088E100E001403F0063
:101E300000003F8000C0024000E100E004E100E05B
:101E400008E100E00CE100E08CE100E04C07FF1F3E
:101E5000F0B41549154A0B6882B016460093009FEE
:101E60004FF00045FF24136843F480631360D5628C
:101E70005463D36A002BFCDAB36BDBB2FF2B4370E5
:101E80000AD10B680193019BDB1BB3F5967FEAD95E
:101E9000002002B0F0BC7047A3F1FE00B0FA80F061
:101EA000400902B0F0BC7047DC14FF1F00C00240C4
:101EB000F8B58378032B0E46044618BF4E0215462C
:101EC000FFF78AFD324611212046FFF709FE18B9B7
:101ED0002046FFF7BDFF20B92046FFF749FD00204F
:101EE000F8BD204B2049214A1A608E4659631A4694
:101EF00059631E46596305F5FD70A91C05F5FE776B
:101F0000D36A13F0F00FFBD0C6F834E0B36B01F8DE
:101F1000013C1B1201F8023C02318F42F0D105F561
:101F20000075A8420DD20F4A1646D36A13F0F00F7F
:101F3000FBD0B36B191200F8021BA84200F8013C59
:101F4000F3D3084B0949084A196019465A63CB6A0A
:101F5000044A13F0F00FFAD02046936BFFF708FD08
:101F60000120F8BD00C00240FFFF009000041F8068
:101F7000F0B4314E33684FF0004743F48063336070
:101F80003D46F762344671633346511C02F2012725
:101F9000E26A002AFCDA1A6811F8016C42F48062E5
:101FA0001A60DD625E63E26A002AFCDA1A6811F8E0
:101FB000026B42F480628F421A60DD625E63E7D199
:101FC0001D49CA6A1C4B002AFBDA1A684FF000450B
:101FD00042F48062FF241A601946DD625C63CB6ABA
:101FE000154A002BFBDA13684FF0004543F4806379
:101FF000FF2413601146D5625463CB6A0E4A002B4E
:10200000FBDA13684FF0004543F48063FF2413604C
:102010001146D5625463CB6A074A002BFBDA936BF7
:10202000DBB203F01F024370A2F10500B0FA80F0AA
:102030004009F0BC704700BF00C0024070B50446C4
:1020400071B18378032B0D4618BF4D021646FFF77A
:10205000C3FC2A4618212046FFF742FD054620B161
:102060002046FFF785FC002070BD3246FE21204649
:10207000FFF77EFF0028F3D04FF416712046FFF7DC
:1020800005FD0028ECD02A460D212046FFF728FD4B
:102090000028E5D10B4B1A684FF0004542F48062EE
:1020A000FF201A601946DD625863CB6A054A002B8F
:1020B000FBDA936B13F0FF0FD2D12046FFF758FCE9
:1020C000012070BD00C00240014B024A1A607047F7
:1020D000C012FF1F0320003838B590F90530002BDF
:1020E00003DBBDE8384000F085BC044601210069EF
:1020F00000F0C0FCF8B1257D104B13EB45151AD04C
:10210000A3790F4A012B9CBFA369EB61E3691268B5
:102110006B831B0CAB8232B105F1160105F118007F
:1021200090472B8B6B82637903F07F036371BDE86B
:10213000384000F05FBC002038BD00BFD412FF1F44
:10214000C812FF1F10B500F1080204460121006A01
:1021500000F084FD50B1E3693BB96379A268E261A4
:1021600063F07F036371012010BD012010BD00BF2B
:1021700070B50646FFF7E6FF98B1326AB568117C84
:1021800053691479023D8D40013B74B11D4402E056
:1021900014F0FF0407D0601900F0DCFC013C0028BB
:1021A000F6D1002070BD336A197CB0694FF400721B
:1021B00002FA01F30344B361012070BD82790AB9C8
:1021C0000020704710B50446FFF786FF18B10023C2
:1021D000A371012010BD002010BD00BF002270B40B
:1021E000013814462E2610F8013F202B04D0082A6F
:1021F00009D0651C0B55ECB201320B2AF3D1002338
:102200000B5570BC70470E550134E4B20378F0E70B
:1022100070B44B1E01F10A04202203F8012FA342DF
:10222000FBD101380025072610F8014F2CB32E2CC6
:102230001ED0164A01E09C4217D012F8013B002B39
:10224000F9D1AE421FD3A4F121025D2A1BD8A4F11B
:102250006102192A05F1010398BF203C0D44DBB24D
:1022600098BFE4B22C701D46DEE7002070BC7047BA
:102270000A2EFAD008250A26D6E70B78B3F12000FB
:1022800018BF0120F2E71846F0E700BFC4A4000021
:1022900038B583793BB991F82020102A0D460446C1
:1022A00003D0202A10D0002038BD022282714A8C2F
:1022B000C36153018361002301206071237525628E
:1022C000A360E360236138BD03238371496AC16160
:1022D00000F11802284600F091FC0028EBD1E2E75B
:1022E000837913B94FF0FF3070472DE9F04F8B46DB
:1022F0004179C90783B005465BD5C1688469641A12
:10230000944228BF144626460194002C69D01A46F0
:10231000022ADFF8FC903D4FDFF8F880C1F3080A8D
:1023200042D0286A0479013C04EA5124E4B2BAF1AB
:10233000000F62D1002C60D1002956D1EA69AA6051
:1023400090F810E04169023A02FA0EF22144114479
:10235000CAF500746A79B442A8BF344653062DD436
:10236000B4F5007F2AD00846002100F083FB00B3BB
:102370000AEB090E0EEB040086450BD00BF1FF3281
:10238000734613F8011B02F8011F9842F9D1CEEBF6
:1023900000008344E968361B2144E96021D0AA7912
:1023A000022AC1F3080ABCD12A6A506A00EB512103
:1023B000CEE74FF0FF3003B0BDE8F08F3A689142AE
:1023C000D1D0D8F800000378FE2B18D05A46FFF77A
:1023D0006FFD0028EDD0E968361B2144A344E96075
:1023E000DDD1019803B0BDE8F08F05F10802A968BE
:1023F00000F0CCFB0028DCD0286AAA68A0E7584689
:10240000FFF790F9B0FA80F04009E2E74807FF1FB4
:10241000D412FF1FD012FF1F38B58379012B16D9B4
:10242000C368DA060C46054611D12022214628460B
:10243000FFF756FF40B220280CD1237863B1E52B7B
:10244000F3D02E2BF1D0E37A1B07EED438BD4FF03A
:10245000FF3038BDC01738BD184638BD8379012B11
:1024600017D930B5C36883B001220DF107010446C6
:10247000C3F34315FFF734FF012802D0002003B057
:1024800030BDE36804481F3300EB4510E36003B040
:1024900030BD0020704700BFD412FF1FF8B583790C
:1024A00013B182698A4201D20020F8BD022B0F4687
:1024B00005461AD007B32B6AE9681C7C4A1E04F152
:1024C00009037C1EDA40DC40A24211D9EB69AB6003
:1024D00005F1080606E0A968286A00F057FB013CF0
:1024E0000028E1D03246002CF5D1EF600120F8BD84
:1024F0000029EBD0A41AEBE7AF60EF600120F8BD34
:1025000083790BB1FFF7E8BD184670478379012B3B
:1025100001D000207047F0B54579AC0783B0024682
:102520001CD585698D420C4618D3D5B12546D66891
:102530001446FFF7B3FF88B1B5B9E169206A00F02E
:1025400017FC58B1E56122E000F012FC30B16FF0E9
:102550007042A168206A00F0F9FBC0B9002003B006
:10256000F0BD184603B0F0BD01AAA168206A00F0D2
:102570000DFB0028F2D0206A0F4B90F820700199D3
:102580004FF6F872102F08BF13469942DCD36379D7
:10259000A279A56163F07F036371002ADED0204633
:1025A000FFF79AFD0028D9D0B5422946204628BF1A
:1025B0003146FFF773FFD2E7F8FFFF0F70B51D4BF1
:1025C00003EB4116F37A13F0110F02D012F0420F11
:1025D0001ED1194B01751B680361738BB18A43EAE5
:1025E0000141C161F37A13F01803154604460DD179
:1025F000F36983610123837105F00F030021637187
:102600006B06A160E1600FD4012070BD102B01D0DA
:10261000002070BD00F11802006A00F0EFFA0028F7
:10262000F6D00423A371E7E72046BDE87040FFF72A
:102630006DBF00BFD412FF1F4807FF1F2DE9F047F1
:1026400084B001AF06460C46104639469946FFF75E
:10265000DFFD78B30022216A316213461546A2607D
:10266000E260DFF8008108E0E52B1CD001460B2278
:10267000384603F039FE88B3E368A2699A421DD94F
:102680002046C3F3431AFFF7E9FE98B10378002B05
:10269000EAD15DB9D8F8003086F814A03361037828
:1026A00023B10125E8E7002DFBD1F3E709F0120380
:1026B000122B1DD0002004B0BDE8F08709F01203F2
:1026C000122BF7D1A5B9A379022BF3D02046FFF73F
:1026D0004FFD0028EED0214C357514E009F0300391
:1026E000302BE7D04A4651463046FFF767FFE2E716
:1026F0000121306900F0BEF90028DBD0347D174B92
:1027000013EB4414D6D020220021204603F082FE91
:1027100097E80700234603C3114923F8022B0D68ED
:10272000120C1A709DB104F10E0104F11000A847BB
:10273000238AE28963822383E28200F05BF9002826
:10274000B8D04A46317D3046FFF738FFB3E742F64E
:1027500021034FF400622382E281EBE7D412FF1FD2
:10276000C812FF1F4807FF1F10B484791CB1002056
:102770005DF8044B70475DF8044BFFF75FBF00BF87
:1027800010B500210446FFF7C1FE08B9002010BDB6
:102790000121206900F06EF90028F7D0237D064A58
:1027A0005B01DA42F2D0E52098540021A171BDE826
:1027B000104000F01FB900BFD412FF1F30B58BB01E
:1027C00000240A46084D8DF808400146022301A85E
:1027D0008DF80A400195FFF731FF10B101A8FFF70E
:1027E000CFFF0BB030BD00BFB4A400002DE9F04F07
:1027F0008B46817985B001290746019205D00123D6
:102800003B71002005B0BDE8F08F42799107F6D505
:10281000530708D5FC68B9698C4200F0B480FFF713
:102820003DFE0028EBD0019BFC68002B4AD0DFF86E
:10283000A491DFF8A4A1DDF80480386A0679013E8E
:1028400006EA542616F0FF06C4F3080443D1002C10
:1028500041D1B968002973D1FA69002A00F0838058
:10286000BA60C4F50075ADB245453AD9057C4169F9
:10287000023AAA400E4416441FFA88F51CB9F868BB
:10288000BA6990424FD23046012100F0F3F8002897
:10289000B5D04C4404EB050E74450DD00BF1FF315F
:1028A000621E0EF1FF3611F8010F02F8010F964279
:1028B000F9D1C4EB0E04A344FC68B8EB05082C4422
:1028C000FC60BAD1BB69A34262D27A79BC6142F0A2
:1028D00080027A7165E0C4F50075ADB24545BA680D
:1028E000C4D8017C4069023A8A400644B5F5007FAD
:1028F0001644C3D1DAF80020964204BF4FF0FF32ED
:10290000CAF800202F4A10680278FE2A314633D0D8
:102910005A46FFF793FB00283FF471AF0BF5007B9D
:102920004FF40075C8E700F065F800283FF467AF82
:102930002549CAF800600A7842F001020A70A8E747
:1029400003AA00F023F900283FF45CAF386A1F4B5C
:1029500090F82050039A4FF6F871102D18BF1946C1
:102960008A42FFF47DAF3846FFF7ECFB00283FF4C6
:1029700046AF386ABA6874E75846FEF755FFB0FAB2
:1029800080F04009C7E7019B002B7FF450AF08E0BF
:102990000F4B7A791B6823B1019B13B142F080027F
:1029A0007A71120709D5BB79002B3FF428AF38465E
:1029B000FFF792FB00283FF422AF019805B0BDE875
:1029C000F08F00BFD012FF1FD414FF1FF8FFFF0FBE
:1029D000C812FF1FD412FF1F4807FF1F00B583B0A6
:1029E00002AB012203F8011D1946FFF7FFFE03B0F9
:1029F0005DF804FB70B51A4C23780BB9012070BD4B
:102A0000184D194B286819680378FE2B17D0174A00
:102A1000FFF714FB88B1164E316819B900232370F3
:102A2000012070BD28680378FE2B0FD00F4AFFF7F6
:102A300005FB10B100233360F0E7002070BD0B48A8
:102A4000FEF7F2FEB0FA80F04009E3E70748FEF730
:102A5000EBFEB0FA80F040090028EBD1EDE700BFB3
:102A6000D414FF1FD012FF1F4807FF1FD412FF1FEF
:102A7000CC12FF1F70B5124D2B6883420E4611D049
:102A80000446FFF7B7FF08B9002070BD0D4B18686A
:102A90000378FE2B0CD00C4A2146FFF709FA0028D8
:102AA000F2D02C60094B197831431970012070BDA8
:102AB00021460548FEF736FEB0FA80F04009EEE701
:102AC0004807FF1FD012FF1FD412FF1FD414FF1F8F
:102AD000F8B590F82030C469102B1A4B05460E4605
:102AE00017461B6816D004EBD1149C4216D106F091
:102AF0007F06154A42F826701449287E0A78012874
:102B000042F001020A7018D9A968114A0B441360F7
:102B10000120F8BD04EB11249C4208D0002120467E
:102B2000FFF7A8FF50B195F82030102B07D1F6B26F
:102B3000054A234622F81670DEE70120F8BD234639
:102B4000D5E700BF4807FF1FD412FF1FD414FF1F93
:102B5000CC12FF1F10B50446FFF74CFF78B1084BAD
:102B6000002103F5007203F8011F9342FBD1054ACF
:102B7000054913780C6043F001031370012010BD68
:102B8000D312FF1FD414FF1F4807FF1FC368013370
:102B90008B4218D370B590F82030102B154B04469B
:102BA00016460D46C0691B680FD000EBD110984245
:102BB0000FD105F07F01104B53F8213023F0704303
:102BC0003360012070BD0020704700EB1120984257
:102BD00007D00021FFF74EFF50B194F82030102BA2
:102BE000E7D1E9B2044B33F811303360012070BDF6
:102BF000002070BD4807FF1FD412FF1F2DE9F047CA
:102C000082B002ADDFF8508045F8041D04469146BD
:102C10004FF0000A4FF400774FF6F8760CE094F886
:102C20002030227C0199102B14BF4346334607FA0B
:102C300002F29942924408D22A462046FFF7A6FFA4
:102C40000028ECD102B0BDE8F0870120C9F800A04F
:102C500002B0BDE8F08700BFF8FFFF0F2DE9F04F8D
:102C6000176883B06FB301374FF0000AC36803F1F0
:102C7000010813B38B46064691463C46002505E005
:102C80001C461F46F3680135AB4216D9A04538BF34
:102C90000224214601AA304638BF2746FFF776FFB7
:102CA000631CD91B48B1019A002AE9D18B4510D089
:102CB0001C46F3680135AB42E8D8002003B0BDE8FC
:102CC000F08FA1F1010ABAFA8AFA07684FEA5A1A94
:102CD000CCE7012CF1D9F36801339C42EDD86FF0B9
:102CE000704221463046FFF7F3FE0028E5D0A742A8
:102CF00014D2013C012CE0D9F36801339C42DCD8AA
:102D0000621C21463046FFF7E3FE0028D5D0A742DB
:102D100004F1FF3402D0012CEED1CEE7D9F8001037
:102D200059B10129C9D9F36801339942C5D83A4646
:102D30003046FFF7CDFE0028BFD0C9F80070BAF1C9
:102D4000000F01D0013737600120B7E701290CD906
:102D5000C3680133994210B403D85DF8044BFFF700
:102D6000B7BE00205DF8044B70470020704700BFDD
:102D7000F0B5022383B00546134F03600C464FF6AF
:102D8000F8760FE0EB6801339C4216D8FFF7A0FEFF
:102D900098B195F82030019C102B0CBF33463B4670
:102DA0009C420DD201AA21462846FFF7EFFE21469C
:102DB000002210B1012C2846E4D8002003B0F0BD59
:102DC000012003B0F0BD00BFF8FFFF0FF8B53E4B88
:102DD000054619601446DAB1042A01D90020F8BD6D
:102DE00000210846FFF746FE0028F7D0374B03EBDB
:102DF000041292F8AE215206F0D11B3403EB0414F6
:102E0000D4F80A30632BE9D9D4F80640002CE5D079
:102E100000212046FFF72EFE0028DFD02B4AB2F813
:102E20000B30B3F5007FD9D1117C0029D6D0D389DE
:102E3000002BD3D0567B002ED0D0002329762E71C4
:102E40002B74012703E009290B462974C6D007FA21
:102E500003F0B04203F10101F5D1D68A1B4906B94E
:102E60004E6AB2F80EE0AE60A644C5F81CE0B2F8B7
:102E70001110177C6984480106FB07E600F2FF1079
:102E800006EB60206E626861B2F813100F4E01B954
:102E9000316A241A0C4424FA03F340F6F4718B428D
:102EA000EB600BD94FF6F4718B4285BFD36A6B622E
:102EB0001023202385F820300120F8BD0C2385F84D
:102EC00020300120F8BD00BFD012FF1FD412FF1F19
:102ED00010B4047F4160022CC26003D05DF8044B43
:102EE00001F06ABB83685DF8044B1847F0B4464BA9
:102EF000464A986B5C6B01791170454922790A70DA
:102F00001A6B00790870002A46D05968C9688A424D
:102F10003ED82168CC8B240402F1FF3065D4C0F385
:102F20000E00C883C88B80B2C882996B0968C88BB1
:102F3000000452D4C2F30E00C883C88B002480B2B0
:102F400012F1FF32C88218BF01221C63596B2E4850
:102F500009680D6800F12C04A54236D00068C468E9
:102F600014F0804F0C680D6815BF24882478023552
:102F7000013544F000440D604463996B254B097999
:102F80001970214912B14A6B12791A70F0BC70475E
:102F9000521A1A630122D9E7D86B196805681E4CCA
:102FA0000A63CC62CC682D681C4E24F08044032751
:102FB000B542CC6083F82D701FD1037F4260022B95
:102FC000C2601ED0F0BC01F0F7BA016890F82C0086
:102FD000CC6840F000404863CFE7CC8BC2F30800D8
:102FE00004F47E442043C883A7E7CC8BC0F30800D9
:102FF00004F47E442043C88394E72B461146F0BC7A
:1030000018478368F0BC18474C07FF1F1F8000401B
:103010001C8000401B80004000000FFFD12E0000EC
:1030200090E80C00F0B41C6859682568164F174EDC
:1030300029432160164D17491760D660156111604C
:10304000417A154A5C180C3194F82C4053F8215001
:1030500002EBC40149680D60017A5C1803EB810141
:10306000247ECD6902EBC40149680D60817A58184D
:1030700003EB810390F84000596C02EBC002F0BCF6
:1030800053681960704700BF01401F0001100038ED
:103090000110007800001F80B0A50000374A3849B1
:1030A00013681B06FCD40B6813F08003F8D172B6CA
:1030B00034490A78002A5FD0334A3448F0B4344C9B
:1030C000176806682568D4680C303E4414320068DE
:1030D0001268304F35442C4420440244C2F34E025F
:1030E0002D4E2E482E4D2F4C42F400423A60376848
:1030F00006682D682C4A24680C303E44006812682B
:103100002A4F35442C4420440244C2F34E02284E38
:103110002848294D294C42F400423A603768066835
:103120002D68274A24680C303E4400681268254FF9
:1031300035442C4420440244C2F34E02224E23481C
:10314000234D244C42F400423A60376806682D68EB
:10315000214A24680C303E440068126835442C44EF
:1031600020440244C2F34E021C4842F40042026072
:103170000B7062B6F0BC704762B6704724B0034073
:1031800024B00B40D614FF1F38B003403CB00340BE
:1031900040B003402CB0034058B003405CB0034043
:1031A00060B0034064B003406CB0034030B00340F3
:1031B00038B00B403CB00B4040B00B4044B00B402B
:1031C0004CB00B402CB00B4058B00B405CB00B40E7
:1031D00060B00B4064B00B406CB00B4030B00B40A3
:1031E00030B42948294A2A4B2A4D6024E121047031
:1031F00011701B78284C082B30D00A2B27482849FF
:1032000037D00C2B0CBF35225D2212232A6023609D
:1032100002600B60234B24491B78244ABBB1012375
:103220000B601360224B23491B78234A012B26D9BC
:10323000042B0FD9082B1ED9102B94BF862387236C
:103240000B6013601D4B01221A7030BC70470B607D
:103250001360E7E784230B601360F3E700F58E202B
:103260000F490830212213232A60236002600B607B
:10327000D0E73922F7E785230B601360E2E780236C
:103280000B601360DEE700BF0040074001400740CD
:103290008C07FF1F08B003400CB0034008B00B4080
:1032A0000CB00B40D914FF1F20B0034020B00B40DE
:1032B0008D07FF1F24B0034024B00B40D614FF1F1E
:1032C00047282FD8334B2DE9F0411E5CFF2E2BD021
:1032D000314B1B78002B2AD132062CD472B62F4DDD
:1032E0002F4C2F46012326602B7062B672B62368DE
:1032F0001B060CD43B781BB9F4E72B78002BF1D0DC
:1033000062B601F0BFFB72B623681806F5D5254BEF
:103310001B6800222A7062B6234A107843FA00F034
:10332000BDE8F081002070470020BDE8F081FFF784
:10333000B5FE3206D2D572B61C4DDFF87C801C4C2F
:1033400006F04007FFB206F03F06D8F80030DFB1C4
:1033500023F01003C8F8003001232660134A2B70B5
:1033600062B672B6236819060CD413781BB9ECE761
:103370002B78002BE9D062B601F084FB72B623688B
:103380001B06F5D50B4BC3E743F01003C8F800301C
:10339000E2E700BF68A50000D614FF1FD814FF1F86
:1033A00000B0034010B00340D514FF1FD714FF1F17
:1033B00000B00B4010B00B400CB00B4008B5104CE7
:1033C00008E0236859050DD423681A050FD4236833
:1033D000DB0411D423685803F3D500F0A9FA23685D
:1033E0005905F1D501F080FC23681A05EFD501F0ED
:1033F00011FD2368DB04EDD501F0A2FDEAE700BF73
:103400003480044008B5FFF7D9FF00BF014B1022FC
:103410001A80704700200540704700BF094908B571
:103420000B6830B16A461844A2F50052904202D2AD
:103430000860184608BD02F04BFC0C2303604FF0F7
:10344000FF3008BD9007FF1F084A1378802B01D07A
:10345000002070470649074B074808600021197093
:103460001378802BFCD00120704700BF03E0074099
:103470004480044001E0074000002822094A1378F4
:10348000012B01D00020704703F1804303F5FC239A
:10349000602119701378802BFCD1034B034A1A600A
:1034A0000120704703E0074044800440000006020A
:1034B00010B4114B53F8302092F8804234B10123FC
:1034C00079B182F880305DF8044B704703EBC0039C
:1034D0005B681A6851B922F002021A605DF8044B69
:1034E000704782F800315DF8044B704742F00302E8
:1034F0001A605DF8044B7047B0A500001C4A02EB4F
:10350000C00301295B6811D004291BD052F8300098
:10351000002280F8802229B1022920D0032922D05C
:103520001A6070474FF480721A60704752F830008A
:103530004FF4A27280F880121A601A6822F02002FA
:103540001A60704752F830104FF4A272012081F8CF
:1035500080021A601A6842F020021A60704740F236
:1035600003121A6070474FF481721A60704700BFEF
:10357000B0A5000030B4054B054D064C00221021CB
:103580001A602A602060196030BC704714D0034074
:1035900004D0034000D003403F2801D8FFF788BF84
:1035A000704700BF3F2801D8FFF7A8BF704700BF92
:1035B0002DE9F843054672B6224F234B234A1B6878
:1035C0003C68126862B6520102D5322B88BF0134C2
:1035D000B5B3C3F52F3303F21F331D4EDFF86890E8
:1035E000DFF868809B084FF47A72A6FB031302FB96
:1035F00004F404EB930472B6D9F800103A68D8F8D2
:1036000000E062B6C1F52F3303F21F339B08A6FB1F
:1036100003031EF0806FC4EB93034FF47A7002D063
:10362000322988BF013200FB0233B3F57A7F04D31D
:10363000013D05D004F57A74DDE701F023FADAE7FD
:10364000BDE8F883DC14FF1F18E000E004ED00E0A3
:10365000176CC116F8B54E4B4E48DFF85CC14E4CA6
:103660004E49DFF858E14E4E4E4D4F4F4FF000623D
:103670001A604FF080521A604FF000521A604FF0FB
:1036800080421A604FF000421A6000220260282334
:103690004EF6FF70CCF80000CEF8003023600EF537
:1036A000012E0B6033602B6006F500263B6005F5AC
:1036B0000025A36207F500278B6204F5012401F5BC
:1036C000012106F6E87605F6E87507F57F67103103
:1036D0000EF1100E203433602B60CEF800303B60CA
:1036E0000B602360314CBB618B6109212160A7F520
:1036F000002704F58054203F08343A602060BB6006
:10370000E36047F8041C04F5FD2407F5FE270437A1
:1037100004F2FC7422603860A360FB6044F8041C6F
:10372000083404F6FC74C7F8FC2F2060A4F5E124EB
:10373000A4F2DC7433602B60C7F8F81F21681C48C2
:1037400041F40071216001681A4C0EF57F4E0EF1B4
:10375000E80E07F5883706F5803605F5803541F027
:1037600000710160CEF8002047F6FF710822396031
:1037700033602B602260FFF733FD3220FFF718FF24
:1037800000F002FD4FF4AF70BDE8F840FFF710BF46
:1037900004E100E004800340148003401C800340E7
:1037A000248003402C800340348003400080034089
:1037B0000480044000900C40088003400C800340CB
:1037C000431E032B14D872B60A4951F8230068B17E
:1037D00070B4094C058834F81320466841F823601A
:1037E000521B24F8132062B670BC704762B6704753
:1037F000002070473815FF1F3019FF1F01380328BC
:103800000BD872B6074B53F8203043B100205B68E9
:103810000130002BFBD162B670470020704718467C
:10382000F9E700BF8C15FF1FF0B472B61A491B4EA2
:10383000012311F8014B194F9A00240742F00105AA
:1038400005D556F8324064B156F83520BAB1013387
:10385000052BEED162B6124B00221A70F0BC00F0BC
:103860001BBD0F4C0F4D217847F8325007EB431327
:1038700008304A1E5860227062B6F0BC7047084992
:10388000094B0A7847F8353007EBC5030830013A91
:1038900058600A7062B6F0E7E8A700000000FF1F5A
:1038A000B515FF1F88004000C8004000431E032BD1
:1038B0001DD81B4A400140F0100030B4104472B6CD
:1038C000184CE25C032A1BD8DFE802F0021215173D
:1038D00003220D88E25410F0080F14BFC823882378
:1038E00043EA054308310360416062B630BC70476B
:1038F00008300222EDE70522EBE708300422E8E772
:10390000094A52F8230038B1084A52F823004160AE
:1039100042F8231062B6E9E742F82310034AF7E7BA
:103920000000FF1FC415FF1F8C15FF1F9C15FF1FF4
:103930002DE9F04FDFF804A3DFF804B387B044E0CB
:10394000A94F4FEA930807EBC809013ED9F80420B4
:1039500003F00803F6B2A2F1080003F0FF04002B05
:1039600040F0FE8057F838301B0C99B222F8081C42
:10397000002B00F0EC809D4B22F8064C42F8044CE2
:1039800053F82620002A00F02B82994D55F8263056
:103990005860984C45F8260034F81630194424F83D
:1039A000161000F059FC002800F01382924A934B45
:1039B00019F0080F00F1080018BF1346C9F80400F9
:1039C00047F8383008238AF800309AF80040E4B20B
:1039D00060071AD58A4B1B78A3B18A490A7802F08E
:1039E000FF0322B1013BDBB20B7003B900BE864975
:1039F0000A7802F0FF032AB1013BDBB20B70002B07
:103A000000F0BD8104238AF8003004F0080303F0BD
:103A1000FF02002B00F0C8809BF80030DBB21E09CB
:103A20008ED19C08704F57F8342007EBC401C2F3C5
:103A30008302013A49680C2A00F28580DFE802F02F
:103A40007979838383838383428383830700086830
:103A50006E4B6F4D0193684B4A686E4E47F8343099
:103A600081B240F28164694B6A60286000220120C3
:103A7000A1421A603A61BA61307000F2E380B1F598
:103A8000D06F80F02782B1F5817F00F0E08100F2F5
:103A9000C381802900F03682822940F0DE81A98826
:103AA0005D4B01F07F01042900F2D8815B4C890055
:103AB0000B44227062701A78930740F122832070C1
:103AC000022023E2514B01931A683AB3544B514EF2
:103AD0005449188834780D784028864645F0020805
:103AE00028BF4FF0400E002C84F001043470CEEB60
:103AF00000000CBF8824C82407EBC80680B285F0FC
:103B0000010544EA0E447260188047F83840724458
:103B10000D70002800F0B780019B1A603C4B1A889A
:103B2000B2F5A06F0FD100219A7859703E4B1A70F0
:103B300009E0374A108842F22102904200F0A88042
:103B40002D4A47F83420394A012313703AE72A4AAC
:103B50002A4B19F0080F18BF134647F8383031E7E1
:103B600000F09AFB324A334952F82630002B00F01D
:103B70003B8158688C5D42F8260003F10802C9F8C1
:103B80000420032C05D8DFE804F02C0229260222A9
:103B90008A551A8819F0080F0CBF8823C82343EAF6
:103BA000024347F838300DE7E00700F1EB802106CB
:103BB00000F12881A20706D51F4A20491378022068
:103BC000DBB213700870E30602D51C4B10221A708A
:103BD00007B0BDE8F08F04228A55DAE705228A553E
:103BE000D7E703228A55D4E70000FF1F3815FF1FCF
:103BF000E414FF1F3019FF1FC80040008800400078
:103C0000C015FF1F4915FF1FC815FF1FE014FF1F38
:103C1000AC15FF1F4815FF1FC0200740B815FF1F38
:103C2000F414FF1FB415FF1F98200740942007408D
:103C30008C15FF1FC415FF1F8820074080200740F8
:103C40009020074042F22104A14200F0948043D822
:103C5000B1F5086F00F0A881B1F5106F40F0FD805C
:103C6000B84AB94CA978117004F1800503E0083412
:103C7000AC4200F09E81236A1906F8D5606A0838C4
:103C800000F00AFBF3E7BEF1400F18BF002243E744
:103C9000AE4ACD1D11F8013B02F8013FA942F9D10E
:103CA000AB4A1268862A00F01181AA49AA4E0A7806
:103CB000307882F00105002842F002020D700CBF3E
:103CC0008821C82147F8321007EBC20280F00100BA
:103CD00000213070516033E742F22124A14240F0CC
:103CE000FE81DFF8BCC29D4B9D49AC78DCF80050EA
:103CF0001D6081460C700020029080468446044678
:103D000094490D7845F0020E07EBCE03B9F1000F90
:103D10005C600CBF8824C82444EA080385F00104D1
:103D200047F83E3032700C70DFF81CE28A4BDFF847
:103D30002482002840F09880BCF1400F1BD144F051
:103D4000020407EBC403029FDFF8FCE15F60002A76
:103D500040F09F80020442F0880207444EF834206D
:103D600086F800900D703B46402804D100207D4A23
:103D7000019910800B607C4A01231370E3E600F088
:103D8000F7FB3FE6704B784872491A614FF0020E1C
:103D900080F800E0754F0A70754919609960754E9A
:103DA000754D764C9A610D213970FF213170DFF825
:103DB000F4E129702270724D724A8EF800109F272C
:103DC000012406F8047C5D600470DA6007B0BDE889
:103DD000F08F6D4A47F83800137801331370F1E51E
:103DE00043F82600694DD4E58B5D032B67D801A20B
:103DF00052F823F0C5390000C5390000493E0000E3
:103E0000433E000059495C4B80220D2008701A7017
:103E1000A2077FF5D8AECFE640F20232914240F0E1
:103E20005681A98801F07F01042916D86A88A2B9B1
:103E30004E4C89000C448146217841F002012170EA
:103E400059E701238B55BDE500238B55BAE5A988B9
:103E500001F07F01042940F24781444B0F221A7080
:103E6000414A012313706EE640287FF668AF44F0A4
:103E700002040EEBC401029E4E60AAB1444A83F8CC
:103E800000903346403888F8005040334EF83420D4
:103E90006DE70204029B86F8009042F0C8020D70A4
:103EA00003444EF834205FE783F80090029B304AC9
:103EB00088F80050403840334EF8342057E719F066
:103EC000080F0CBF022303238B557BE5314A0F21DA
:103ED0001170EAE6304A5468002CBED06888B5F804
:103EE00004E003E00C325468002CB6D013888342FF
:103EF000F8D153887345F5D1000A03280CBF207808
:103F0000108903E0254C022022706270EA88824208
:103F100080F00C810F490D78402A45F0020E94463E
:103F200007EBCE0028BF4FF0400C04EB0C034460BD
:103F30000293CCEB02004FEA0C484FF0010900223B
:103F4000C824E9E6C015FF1F0000FF1F3719FF1F37
:103F50003819FF1FB415FF1F4815FF1F4019FF1F19
:103F6000D815FF1FF414FF1F94200740C0200740FE
:103F700088004000882007408020074098200740A4
:103F8000F814FF1F4C15FF1FB515FF1FE414FF1F8A
:103F9000C80040004915FF1FECA70000B815FF1F1F
:103FA000DC14FF1F8C200740684A694C127822708D
:103FB000ACE76849684B694A02916949694C6A4DA6
:103FC000039405964FF0000988461C461646049552
:103FD000206828B1456800F05FF92846002DF9D126
:103FE00000232360049B30681A46002342F82930DE
:103FF00028B1456800F050F92846002DF9D100227B
:104000003260029A98F800301146002241F8042BE1
:10401000039A0291023B4FF0000122F81910032B82
:1040200007D8DFE803F0340234024FF0010388F8C8
:10403000003009F10109B9F1040F04F1040406F19B
:10404000040608F10108C3D1484B059EDFF8309102
:10405000DFF8308100211970012518F8013B09F8BB
:10406000043B1A0718D4AC0044F0020244F00304E5
:10407000002347F8323047F834303D4B994505F17D
:104080000105EAD196F8009089F0010233E64FF07D
:10409000000388F80030CCE700F0DEF8AC0007EB56
:1040A000451300F10802002837D05A60314B47F819
:1040B000343000F0D1F844F0010307EBC30200F103
:1040C000080100B351602C4A47F83320CCE7B1F522
:1040D000A06F7FF4C2AE00224FF001090BE642F25E
:1040E00021329142F7D0B8E66A88002A7FF4B5AE53
:1040F000224C89000C448146217821F00201217074
:10410000F9E5022002E7194B44F001021B7847F859
:104110003200164A01331370A6E7144B134A1B787A
:10412000AC00013347F834001370C2E740288446DE
:1041300028BF4FF0400C04EB0C03CCEB00004FEA1F
:104140000C48029300224FF00109D9E5C015FF1F6A
:10415000B815FF1F9C15FF1F3815FF1F8C15FF1F7B
:10416000C415FF1F3019FF1FE414FF1FB515FF1FF3
:10417000D420074088004000C8004000C02007400D
:10418000C4200740E8A700002DE9F041274C01F0CA
:10419000BDF8002204F1880023461A605A600833F3
:1041A00083424FF00001F8D12148224A0368DFF82A
:1041B0009CE0214E214D224FDFF894C0DFF894801F
:1041C00043F480230360136843F0407313600323B8
:1041D0008EF80030A023337002F5C922C4F3072300
:1041E00000F528302B708030C4F3074310323B7049
:1041F000240EFF230470134D8CF80030124888F809
:1042000000301370012306F8AC3C4FF400140EF894
:10421000441C7026102107F82C3C2E70046082F894
:10422000F810AEF1440EBDE8F08100BF0000FF1FA2
:104230003480044000D80040402107409C200740C3
:10424000B020074035E400E004E100E044210740ED
:10425000802007408820074072B60D480268B2FAF5
:1042600082F30B2B10DC4FF00041D94022EA01020F
:10427000026062B6074803EBC303DB00C2180021EB
:10428000C15010465160704762B60020704700BFB1
:104290009407FF1FD003FF1F0D4B0E4AC31AA2FB4A
:1042A00003231B090B2B0CD80B4A127852B972B698
:1042B0000A484FF00041026821FA03F31A430260F2
:1042C00062B67047064A1278002AF0D0FFF7ACBAFF
:1042D000D003FF1F398EE338B515FF1F9407FF1F6A
:1042E000C015FF1F38B50F4D286878B14388028884
:1042F000C118013393420C7A02D24380204638BD64
:10430000FFF7CAFF002320462B6038BD064B1B7801
:104310002BB10320FFF754FA28600028E6D14FF0B4
:10432000FF3038BDD415FF1FC015FF1F10B5094C55
:10433000206818B143881844007A10BD064B1B78DA
:104340002BB10320FFF73CFA20600028F2D14FF098
:10435000FF3010BDD415FF1FC015FF1F044B054AC9
:104360001B6890881BB11A885B88D31A1844704761
:10437000D415FF1F3019FF1F0B4B1B789BB110B5D5
:104380000A4C206848B1FFF787FF00230320236011
:10439000FFF716FA30B1FFF77FFF0320FFF710FA9F
:1043A0000028F8D110BD7047C015FF1FD415FF1F9E
:1043B0002DE9F04FDFF8F89083B0012289F8002052
:1043C000019169B3DFF8EC80354F019E8346D8F840
:1043D0000000B0B3334D4488C4F14001B14228BF5E
:1043E000314604EB010E00221FFA8EFE2A70761A67
:1043F000A0F802E000F1080251B1013C2244594406
:104400001BF8014B02F8014F8B45F9D1B0F802E0DF
:10441000BEF13F0F0BD8244A05211170002ED6D1D2
:104420000198002389F8003003B0BDE8F08F4022E6
:10443000028001460420FFF739FA0022C8F8002064
:10444000E9E73A7822B3194C164D4FF0010A07E01C
:10445000013C16D02A78A2B900F014FB3A78BAB120
:104460000420FFF7CBF90728F2D889F800A0FFF75E
:10447000F3FEC8F800000028ADD10D4B013C1870C8
:10448000E8D101234FF0FF302B7003B0BDE8F08F6F
:1044900000234FF0FF3089F8003003B0BDE8F08F03
:1044A000C015FF1FD015FF1FC815FF1F21480100B1
:1044B000C915FF1FCC15FF1F00B583B002AB01214A
:1044C00003F8010D1846FFF773FF03B05DF804FB16
:1044D00038B50E4D0E4C28680123237028B1408852
:1044E00000232370C0F1400038BD0A4B1B7813B97C
:1044F0000020207038BD0420FFF780F90728F7D886
:10450000FFF7AAFE28600028E9D1F1E7CC15FF1FCC
:10451000C915FF1FC015FF1FF8B5114B1B788BB1D4
:10452000104E114D346801272F7064B10F4A638813
:1045300000271770214623800420FFF7B7F9376062
:1045400000232B70F8BDFFF787FE084B28B101460A
:1045500004201C70FFF7AAF9F2E71F70F0E700BF14
:10456000C015FF1FCC15FF1FC915FF1FC815FF1F62
:1045700038B50E4B1B7873B90D4C216861B103F04F
:10458000FF054B880B800420FFF790F9256038BDAC
:10459000084B01221A7038BDFFF75EFE0028F7D0E5
:1045A0000146BDE838400420FFF780B9C915FF1F58
:1045B000CC15FF1FC815FF1F10B4EFF3108272B6A1
:1045C000437F33B9017F012908D0032910D001238B
:1045D000437702B962B65DF8044B7047114C21680D
:1045E000A1B1114943610B68836108605861EEE72E
:1045F0000E4C216881B10E4943610B6883610860EC
:1046000058610C4B4FF080511960E0E7064B416157
:10461000816120601860DAE7054B416181612060AB
:104620001860EEE7EC15FF1FE815FF1FDC15FF1FF4
:10463000E015FF1F04ED00E070B5EFF3108272B6D5
:104640000C4C206880B10C4E00254369236073B187
:104650009D6102B962B6457783689847EFF310828F
:1046600072B620680028F0D102B962B670BD33601E
:10467000EFE700BFDC15FF1FE015FF1FFFF7DCBFF2
:10468000184A30B41468002C27D0036821688B4284
:104690000ED2CB1A00218460C1602360E0601060FC
:1046A0000223037530BC704711688B42144608D34F
:1046B000A2685B1A0360002AF6D18260C460A06021
:1046C000EEE7D268C2608460E060C568CB1A02225F
:1046D000A8602360027530BC70478460C4601060BD
:1046E000DEE700BFE415FF1FF8B5224E34682CB397
:1046F0002368002B3AD1204F1D4604E03468ECB10A
:104700002368002B32D1A36803B1DD6020693360D8
:10471000036825751B68BB4221D1037F4560022BCE
:10472000C46020D0FFF748FF6368002BE6D0236009
:104730002046FFF7A5FF3468002CE1D1EFF310838A
:1047400072B60E4A00211068116003B962B628B132
:104750008468FFF795FF20460028F9D1F8BD22466E
:1047600000219847E0E783689847DDE7013B236035
:10477000E4E700BFE415FF1FD12E0000F415FF1F72
:10478000024A136801331360FFF7AEBFDC14FF1F4A
:1047900008B5FBF76BFEFBF7CFFE00F073F9FAE705
:1047A00001F0C4BA01F0CABAF8B572B106460F46B4
:1047B00014460025336817F8011B1B6830469847DC
:1047C000013C0544F6D12846F8BD1546FBE700BF7D
:1047D00000B5064A036812885B6883B001A9ADF88A
:1047E00004200222984703B05DF804FBB0A7000044
:1047F00010B5036814465B689847204610BD00BF9B
:104800000EB400B582B003AA52F8041B019202F064
:104810009FF902B05DF804EB03B07047F0B50746AE
:104820008BB0002A33D0012A08BF0A2251B32124B9
:1048300000E0F4B2B1FBF2F502FB1511C8B2092990
:1048400000F1300198BFC8B20AA988BF37302144AF
:1048500088BFC0B201F8240C661E2946002DE8D19D
:1048600033B1013CE4B20AAB23442D2203F8242CDB
:104870003B6801AA11195B683846C4F122029847C7
:104880000BB0F0BD30228DF825202124E8E7036825
:10489000C9B21B6898470BB0F0BD00BFFFFFFFFF18
:1048A0002DE9F04357EC106B85B005460C4610EE31
:1048B000102A3B4610EE100A394601F0C7F90028CD
:1048C00040F0B28027F00049304649464FF0FF32B1
:1048D000594B01F0BBF990B9304649464FF0FF32D1
:1048E000554B01F095F950B92B6854495B6828463F
:1048F000032298478046404605B0BDE8F0834FF05C
:1049000060424F4B3046394601F096F9002872D18B
:104910004FF060424B4B3046394601F06FF90028AA
:1049200069D1002200233046394601F067F900289A
:1049300064D18146002C67D0434900204FF0000825
:104940003BA3D3E9002308F1010800F0E5FE5FFA7C
:1049500088F39C42F4D802460B463046394600F0B4
:1049600029FD0F46064601F087F9804600F05EFEFD
:1049700002460B463046394600F01AFD4B460646C5
:104980000F460A2241462846FFF748FF0F2C28BF52
:104990000F2404F101092E2380465FFA89F98DF86E
:1049A000003001240022294B3046394600F0B4FE85
:1049B0000F46064601F060F904AB2344C0B200F193
:1049C000300203F8102C00F041FE02460B46304640
:1049D000394600F0EDFC0134E4B24C4506460F4682
:1049E000E0D12B6822465B682846694698474046D6
:1049F00005B0BDE8F0832B68154977E707F1004360
:104A00001F464FF0010995E700220F4B304639460B
:104A100000F0D0FC01F030F94B4601460A2228464E
:104A2000FFF7FCFE804666E72B680A495EE700BF99
:104A3000000000A09999B93FFFFFEF7FBCA70000DD
:104A4000FFFFEF41FFFFEFC10000E03F0000244007
:104A5000B8A70000B4A70000FFF78EBCFFF766BC44
:104A6000FFF740BCFFF77ABCFFF756BDFFF730BD3C
:104A700008461146FFF79CBC0846FFF71DBD00BF66
:104A8000704700BF38B52C4C237803B138BD0123E3
:104A90002370FFF763FC002842D100F015F90028CD
:104AA0003BD100F0A7F9002834D100F039FA70BBEF
:104AB00000F0B2FA40BB00F02BFB10BB00F0A4FBEF
:104AC000E0B900232370EFF30583002BDED1EFF371
:104AD000108172B6194B186828B3194C227812BB92
:104AE00045691D60012323700DB3AA6101B962B647
:104AF00000254577836898472570C7E700F052FC8A
:104B0000DFE700F04DFCD9E700F048FCD3E700F008
:104B100043FCCDE700F03EFCC7E700F039FCC0E7FE
:104B2000FFF7AEFFB9E70029B0D162B638BD054B3B
:104B30001D600029DCD1DAE7F815FF1FEC15FF1F17
:104B4000F015FF1FE815FF1F844641EA000313F02C
:104B500003036DD1403A41D351F8043B40F8043B84
:104B600051F8043B40F8043B51F8043B40F8043B47
:104B700051F8043B40F8043B51F8043B40F8043B37
:104B800051F8043B40F8043B51F8043B40F8043B27
:104B900051F8043B40F8043B51F8043B40F8043B17
:104BA00051F8043B40F8043B51F8043B40F8043B07
:104BB00051F8043B40F8043B51F8043B40F8043BF7
:104BC00051F8043B40F8043B51F8043B40F8043BE7
:104BD00051F8043B40F8043B403ABDD2303211D387
:104BE00051F8043B40F8043B51F8043B40F8043BC7
:104BF00051F8043B40F8043B51F8043B40F8043BB7
:104C0000103AEDD20C3205D351F8043B40F8043B86
:104C1000043AF9D2043208D0D2071CBF11F8013B84
:104C200000F8013B01D30B8803806046704700BF4A
:104C3000082A13D38B078DD010F003038AD0C3F159
:104C40000403D21ADB071CBF11F8013B00F8013B3B
:104C500080D331F8023B20F8023B7BE7043AD9D3FA
:104C6000013A11F8013B00F8013BF9D20B780370CF
:104C70004B7843708B78837060467047F0B44D1E5C
:104C80002E46002400E00134B0FBF2F302FB1300D7
:104C9000092800F130078ABF3730F8B2C0B206F8F1
:104CA000010F1846002BEED10A1953704CB1107841
:104CB00015F8016F28700133E01A834202F8016988
:104CC000F5DB0846F0BC7047054A064B10781B78A8
:104CD000C0B2DBB2984238BF4030C01A704700BF44
:104CE0000016FF1F0116FF1FF0B4384B1A7912F09F
:104CF000300F2CD072B6997D01F0FF0200293DD013
:104D000062B6334F334938780D78334E1C46C0B203
:104D1000EDB2431C402BE17928BF0023AB4202F1E6
:104D2000FF32C9B21CBFF154184612F0FF02F0D195
:104D30002A4B1B68C2B23A704BB1A84236BFC5F1CC
:104D40004005401B40192728C4BF01221A701F4983
:104D5000CA78D2B2150616D452060DD51B4B1B7954
:104D60005B0609D51E4B1F491B6800220A7003B160
:104D70001A70164B3C22DA70F0BC70474022D97989
:104D80005A7462B6E3E70B791C06E5D5164B174E4D
:104D90001C783378E4B2DBB29C420ED0144D01E0B3
:104DA000A3420AD00133402B28BF00230879E85CD6
:104DB000C0B2C871087D0728F2D9DBB2034933704D
:104DC0000B79180644BF7C23CB70C5E700A00640D2
:104DD0000016FF1F0116FF1F4416FF1FFC15FF1FC3
:104DE0008816FF1F8416FF1F8C16FF1F8516FF1FD6
:104DF0000416FF1F054A064B10781B78C0B2DBB2C1
:104E0000984238BF4030C01A704700BF0017FF1FDC
:104E10009516FF1FF0B4384B1A7912F0300F2CD0D2
:104E200072B6997D01F0FF0200293DD062B6334F82
:104E3000334938780D78334E1C46C0B2EDB2431C6E
:104E4000402BE17928BF0023AB4202F1FF32C9B207
:104E50001CBFF154184612F0FF02F0D12A4B1B6818
:104E6000C2B23A704BB1A84236BFC5F14005401BF3
:104E700040192728C4BF01221A701F49CA78D2B22C
:104E8000150616D452060DD51B4B1B795B0609D5AA
:104E90001E4B1F491B6800220A7003B11A70164B83
:104EA0003C22DA70F0BC70474022D9795A7462B65D
:104EB000E3E70B791C06E5D5164B174E1C783378C3
:104EC000E4B2DBB29C420ED0144D01E0A3420AD002
:104ED0000133282B28BF00230879E85CC0B2C871D1
:104EE000087D0728F2D9DBB2034933700B79180625
:104EF00044BF7C23CB70C5E700B006400017FF1FFE
:104F00009516FF1FC016FF1F9016FF1F0417FF1FE7
:104F10009416FF1F0817FF1F0117FF1F9816FF1F8A
:104F2000054A064B10781B78C0B2DBB2984238BFF6
:104F30004030C01A704700BF1017FF1F1117FF1F26
:104F400030B42B4B1A7994061FD52A48DA790378A6
:104F5000294901333F2B0978C8BF00238B42D2B2C5
:104F600003D0264CD9B2E2540170254A116861B1D0
:104F7000244A1278D2B2934236BFC2F140029B1A41
:104F80009B18272BC4BF01230B70194AD378DBB2BF
:104F9000180611D45A060DD5154B1B795B0609D599
:104FA000194B1A491B6800220A7003B11A70104B82
:104FB0002C22DA7030BC704711790906EAD5144901
:104FC00010480C780178C9B28C420DD04A1C272AAF
:104FD00084BF00210A460F4D054C98BFD1B2AA5C90
:104FE000D2B2E2710170D5E76C21D170D2E700BF77
:104FF00000C006401017FF1F1117FF1F3C17FF1FAF
:105000000C17FF1F7D17FF1F8017FF1F7C17FF1F47
:105010008417FF1F1417FF1F054A064B10781B78D3
:10502000C0B2DBB2984238BF4030C01A704700BFF0
:105030008C17FF1F8D17FF1F30B42B4B1A79940666
:105040001FD52A48DA790378294901333F2B09789B
:10505000C8BF00238B42D2B203D0264CD9B2E2544F
:105060000170254A116861B1244A1278D2B2934284
:1050700036BFC2F140029B1A9B18272BC4BF0123E5
:105080000B70194AD378DBB2180611D45A060DD525
:10509000154B1B795B0609D5194B1A491B68002271
:1050A0000A7003B11A70104B2C22DA7030BC7047B2
:1050B00011790906EAD5144910480C780178C9B26B
:1050C0008C420DD04A1C272A84BF00210A460F4D6E
:1050D000054C98BFD1B2AA5CD2B2E2710170D5E79B
:1050E0006C21D170D2E700BF00D006408C17FF1FA3
:1050F0008D17FF1FB817FF1F8817FF1FF917FF1F16
:10510000FC17FF1FF817FF1F0018FF1F9017FF1F46
:10511000054A064B10781B78C0B2DBB2984238BF04
:105120004030C01A704700BF0818FF1F0918FF1F42
:1051300030B42B4B1A7994061FD52A48DA790378B4
:10514000294901333F2B0978C8BF00238B42D2B2D3
:1051500003D0264CD9B2E2540170254A116861B1DE
:10516000244A1278D2B2934236BFC2F140029B1A4F
:105170009B18272BC4BF01230B70194AD378DBB2CD
:10518000180611D45A060DD5154B1B795B0609D5A7
:10519000194B1A491B6800220A7003B11A70104B90
:1051A0002C22DA7030BC704711790906EAD514490F
:1051B00010480C780178C9B28C420DD04A1C272ABD
:1051C00084BF00210A460F4D054C98BFD1B2AA5C9E
:1051D000D2B2E2710170D5E76C21D170D2E700BF85
:1051E00000A00E400818FF1F0918FF1F3418FF1FEA
:1051F0000418FF1F7518FF1F7818FF1F7418FF1F72
:105200007C18FF1F0C18FF1F054A064B10781B78EF
:10521000C0B2DBB2984238BF4030C01A704700BFFE
:105220008418FF1F8518FF1F30B42C4B5A68940256
:105230001FD52B48DA6803782A4901333F2B0978B8
:10524000C8BF00238B4204D0274CD2B2D9B2E2545B
:105250000170264A116861B1254A1278D2B2934290
:1052600036BFC2F140029B1A9B18272BC4BF0123F3
:105270000B701A4A9368180202D55268110211D4B1
:105280005A020DD5154B5B685B0209D5194B1A49BB
:105290001B6800220A7003B11A70184B00221A60B2
:1052A00030BC7047164A124910780A78D2B2904240
:1052B0000DD00132272A84BF00200246114D074C31
:1052C00098BFD0B2AA5CD2B2E2600870D8E70E48AC
:1052D0000A4A0024012104601160D1E700400C401B
:1052E0008418FF1F8518FF1FB018FF1F8018FF1FAD
:1052F000F118FF1FF418FF1FF018FF1F5801884313
:10530000F818FF1F8818FF1F5C01884310B584B090
:1053100072B6FEF799F8184A184B194911607022B5
:1053200080211A701A46197013781B06FCD5154B8C
:105330001C68FEF7A3F862B6134B9C429CBF04EBBB
:10534000840464002046114C01A90A22FFF796FC50
:1053500001A92046002311F8012B01333AB10A2B91
:1053600020F8022FF7D11623237004B010BD5B0084
:10537000DBB2237004B010BD040002400000024004
:10538000000007410C0002407F9698003408FF1F80
:10539000704700BF704700BF704700BF704700BF35
:1053A000704700BF704700BF81F0004102E000BFBE
:1053B00083F0004330B54FEA41044FEA430594EAD5
:1053C000050F08BF90EA020F1FBF54EA000C55EA10
:1053D000020C7FEA645C7FEA655C00F0E2804FEAE1
:1053E0005454D4EB5555B8BF6D420CDD2C4480EAC3
:1053F000020281EA030382EA000083EA010180EAF3
:10540000020281EA0303362D88BF30BD11F0004F40
:105410004FEA01314FF4801C4CEA113102D0404276
:1054200061EB410113F0004F4FEA03334CEA1333B1
:1054300002D0524263EB430394EA050F00F0A780C9
:10544000A4F10104D5F1200E0DDB02FA0EFC22FAC4
:1054500005F2801841F1000103FA0EF2801843FAB8
:1054600005F359410EE0A5F120050EF1200E012AA9
:1054700003FA0EFC28BF4CF0020C43FA05F3C018E7
:1054800051EBE37101F0004507D54FF0000EDCF160
:10549000000C7EEB00006EEB0101B1F5801F1BD309
:1054A000B1F5001F0CD349085FEA30004FEA3C0C0D
:1054B00004F101044FEA445212F5800F80F09A8003
:1054C000BCF1004F08BF5FEA500C50F1000041EB07
:1054D000045141EA050130BD5FEA4C0C404141EB0B
:1054E000010111F4801FA4F10104E9D191F0000F32
:1054F00004BF01460020B1FA81F308BF2033A3F1B5
:105500000B03B3F120020CDA0C3208DD02F1140CAB
:10551000C2F10C0201FA0CF021FA02F10CE002F1E6
:105520001402D8BFC2F1200C01FA02F120FA0CFCDF
:10553000DCBF41EA0C019040E41AA2BF01EB045128
:10554000294330BD6FEA04041F3C1CDA0C340EDC26
:1055500004F11404C4F1200220FA04F001FA02F369
:1055600040EA030021FA04F345EA030130BDC4F127
:105570000C04C4F1200220FA02F001FA04F340EA1C
:105580000300294630BD21FA04F0294630BD94F0CD
:10559000000F83F4801306BF81F480110134013DB4
:1055A0004EE77FEA645C18BF7FEA655C29D094EA25
:1055B000050F08BF90EA020F05D054EA000C04BFA3
:1055C0001946104630BD91EA030F1EBF002100208E
:1055D00030BD5FEA545C05D14000494128BF41F02D
:1055E000004130BD14F580043CBF01F5801130BD91
:1055F00001F0004545F0FE4141F470014FF000001C
:1056000030BD7FEA645C1ABF194610467FEA655CCC
:105610001CBF0B46024650EA013406BF52EA03356E
:1056200091EA030F41F4002130BD00BF90F0000F5C
:1056300004BF0021704730B54FF4806404F1320498
:105640004FF000054FF0000150E700BF90F0000F51
:1056500004BF0021704730B54FF4806404F1320478
:1056600010F0004548BF40424FF000013EE700BF48
:1056700042004FEAE2014FEA31014FEA02701FBFD8
:1056800012F07F4393F07F4F81F06051704792F0AA
:10569000000F14BF93F07F4F704730B54FF4607424
:1056A00001F0004521F0004120E700BF50EA01026F
:1056B00008BF704730B54FF000050AE050EA01021C
:1056C00008BF704730B511F0004502D5404261EB8C
:1056D00041014FF4806404F132045FEA915C3FF4CD
:1056E000DCAE4FF003025FEADC0C18BF03325FEA66
:1056F000DC0C18BF033202EBDC02C2F1200300FA1B
:1057000003FC20FA02F001FA03FE40EA0E0021FA3F
:1057100002F11444C1E600BF70B54FF0FF0C4CF429
:10572000E06C1CEA11541DBF1CEA135594EA0C0FDF
:1057300095EA0C0F00F0DEF82C4481EA030621EA1A
:105740004C5123EA4C5350EA013518BF52EA033555
:1057500041F4801143F4801338D0A0FB02CE4FF007
:105760000005E1FB02E506F00042E0FB03E54FF037
:105770000006E1FB03569CF0000F18BF4EF0010E2F
:10578000A4F1FF04B6F5007F64F5407404D25FEA2B
:105790004E0E6D4146EB060642EAC62141EA5551DE
:1057A0004FEAC52040EA5E504FEACE2EB4F1FD0C20
:1057B00088BFBCF5E06F1ED8BEF1004F08BF5FEA9E
:1057C000500E50F1000041EB045170BD06F0004650
:1057D00046EA010140EA020081EA0301B4EB5C04FD
:1057E000C2BFD4EB0C0541EA045170BD41F48011F5
:1057F0004FF0000E013C00F3AB8014F1360FDEBF1A
:10580000002001F0004170BDC4F10004203C35DAF5
:105810000C341BDC04F11404C4F1200500FA05F378
:1058200020FA04F001FA05F240EA020001F0004219
:1058300021F0004110EBD37021FA04F642EB06018F
:105840005EEA430E08BF20EAD37070BDC4F10C04B9
:10585000C4F1200500FA04F320FA05F001FA04F27D
:1058600040EA020001F0004110EBD37041F1000169
:105870005EEA430E08BF20EAD37070BDC4F1200574
:1058800000FA05F24EEA020E20FA04F301FA05F2DC
:1058900043EA020321FA04F001F0004121FA04F284
:1058A00020EA020000EBD3705EEA430E08BF20EA54
:1058B000D37070BD94F0000F0FD101F0004640008E
:1058C00041EB010111F4801F08BF013CF7D041EA10
:1058D000060195F0000F18BF704703F00046520014
:1058E00043EB030313F4801F08BF013DF7D043EAE5
:1058F0000603704794EA0C0F0CEA135518BF95EA9B
:105900000C0F0CD050EA410618BF52EA4306D1D121
:1059100081EA030101F000414FF0000070BD50EA40
:10592000410606BF1046194652EA430619D094EACA
:105930000C0F02D150EA013613D195EA0C0F05D1B4
:1059400052EA03361CBF104619460AD181EA030108
:1059500001F0004141F0FE4141F470014FF00000C0
:1059600070BD41F0FE4141F4780170BD70B54FF05B
:10597000FF0C4CF4E06C1CEA11541DBF1CEA1355DB
:1059800094EA0C0F95EA0C0F00F0A7F8A4EB0504BD
:1059900081EA030E52EA03354FEA013100F08880B4
:1059A0004FEA03334FF0805545EA131343EA12637D
:1059B0004FEA022245EA111545EA10654FEA002632
:1059C0000EF000419D4208BF964244F1FD0404F5EB
:1059D000407402D25B084FEA3202B61A65EB030547
:1059E0005B084FEA32024FF480104FF4002CB6EB04
:1059F000020E75EB030E22BFB61A754640EA0C0084
:105A00005B084FEA3202B6EB020E75EB030E22BFC3
:105A1000B61A754640EA5C005B084FEA3202B6EB04
:105A2000020E75EB030E22BFB61A754640EA9C00C3
:105A30005B084FEA3202B6EB020E75EB030E22BF93
:105A4000B61A754640EADC0055EA060E18D04FEA51
:105A5000051545EA16754FEA06164FEAC30343EAF1
:105A600052734FEAC2025FEA1C1CC0D111F4801FBE
:105A70000BD141EA00014FF000004FF0004CB6E7B7
:105A800011F4801F04BF01430020B4F1FD0C88BF56
:105A9000BCF5E06F3FF6AFAEB5EB030C04BFB6EB61
:105AA000020C5FEA500C50F1000041EB045170BD54
:105AB0000EF0004E4EEA113114EB5C04C2BFD4EB81
:105AC0000C0541EA045170BD41F480114FF0000E05
:105AD000013C90E645EA060E8DE60CEA135594EA81
