:1000000000000220990100008D1900004519000030
:100010004519000045190000451900004519000068
:100020004519000045190000451900008D19000010
:100030008D19000045190000492B00004D2C0000CF
:100040008D1900008D1900008D1900008D19000018
:100050008D1900008D1900008D1900008D19000008
:100060008D1900008D1900008D1900008D190000F8
:100070008D1900008D1900008D1900008D190000E8
:100080008D1900008D1900008D1900008D190000D8
:100090008D1900008D1900008D1900008D190000C8
:1000A0008D1900008D1900008D1900008D190000B8
:1000B0008D1900008D1900008D190000712F0000AE
:1000C0008D1900009D3000008D190000C93100001D
:1000D0008D190000C13200008D1900008D1900003B
:1000E0008D1900008D1900008D1900008D19000078
:1000F0008D1900008D1900008D1900008D19000068
:100100008D1900008D1900008D1900008D19000057
:100110008D190000051E00008D1900008D190000CA
:100120008D1900008D1900008D1900008D19000037
:100130008D1900008D1900008D1900008D19000027
:100140008D1900008D190000B93300008D190000D1
:10015000B13400008D1900008D1900008D190000C8
:100160008D1900008D1900008D1900008D190000F7
:100170008D1900008D1900008D1900008D190000E7
:100180008D1900008D1900008D1900008D190000D7
:100190008D1900008D190000584B4CF2205210B5FB
:1001A0001A804DF628121A8000BF00BF01F0F2FB42
:1001B000534B4FF030621A60524A9A60524ADA60EA
:1001C000524B4FF470021A60514A136813F4807353
:1001D00004D150490B604FF4A85313604E4B1A786A
:1001E000110703D51A7842F008021A704B4B4C499C
:1001F0002A221A704B4A4C4B8B4204D252F8040FFD
:1002000043F8040BF8E7494B494900228B4202D2DC
:1002100043F8042BFAE74749474A002352F82300E2
:1002200041F823000133662BF8D1444B444A802126
:1002300003F8011B9342FBD1424B3E4A1A60424BEA
:100240008A221A70A3F5805324225A70A0221A70B1
:100250009A799207FCD59A79D406FCD43B4A9379D3
:1002600003F00C03082B394BF9D103221A714622F3
:100270005A719A799006FCD5344A9179334B4906E4
:10028000FBD5334A4FF08271116009215160202261
:100290001A709A7902F00C020C2AFAD12D4B2E4AD0
:1002A0001A602E4B2E4A1A6000225A60072243F829
:1002B000042C2C4AC3F80C2D62B601F057FC154BE8
:1002C0001B68DA0705D5284801F0E4FB274B284ACC
:1002D0001A60284B1B785B0609D5244C244B2268F6
:1002E0009A4204D1204801F0D5FB0023236003F09B
:1002F0000FFE01F055FB02F0B1FCFEE70E200540B9
:1003000030800440823F04000100002B88ED00E0B3
:1003100010D0034014D0034002D0074000E0074053
:10032000A811FF1F24880000F806FF1FA811FF1F57
:10033000FC18FF1F0002FF1F0000000000E400E0A7
:1003400056E400E008ED00E00050064000400640A2
:100350004480044004800440C010050014E000E024
:10036000BFD4010000002020F464225B1CE00340A5
:10037000A5C3945A00F00740FFFFFFFFFFFFFFFFF8
:10038000FFFFFFFFFFFFFFFFFFFFFFFFFFFFFFFF7D
:10039000FFFFFFFFFFFFFFFFFFFFFFFFFFFFFFFF6D
:1003A000FFFFFFFFFFFFFFFFFFFFFFFFFFFFFFFF5D
:1003B000FFFFFFFFFFFFFFFFFFFFFFFFFFFFFFFF4D
:1003C000FFFFFFFFFFFFFFFFFFFFFFFFFFFFFFFF3D
:1003D000FFFFFFFFFFFFFFFFFFFFFFFFFFFFFFFF2D
:1003E000FFFFFFFFFFFFFFFFFFFFFFFFFFFFFFFF1D
:1003F000FFFFFFFFFFFFFFFFFFFFFFFFFFFFFFFF0D
:10040000FFFFFFFFFFFFFFFFFFFFFFFFDEF9FFFF23
:1004100010B5054C237833B9044B13B10448AFF33E
:1004200000800123237010BDA811FF1F00000000F1
:1004300020880000084B10B51BB108490848AFF3ED
:1004400000800848036803B910BD074B002BFBD0A0
:10045000BDE81040184700BF00000000AC11FF1FAE
:1004600020880000A811FF1F0000000038B50E4AC8
:100470000E490F4D0F4C1378002BFCD00B789B07C7
:10048000F9D02B6820681B1A182BF4D900211720EB
:1004900001F018FB1621084802F0F0F90748BDE802
:1004A000384002F0F7BB00BF7415FF1F8C15FF1F0B
:1004B0009014FF1FF418FF1FB48100004807FF1FAE
:1004C000F0B5164E164D174C174F87B0172001F098
:1004D000BBF933680393154B039A19682B68019392
:1004E000236818443B682060D21A019B8A4203F1BA
:1004F00001032B600FD3B0FBF3F332680592059A2A
:100500000B490C4802F0DEFB33680493049B3B600C
:1005100000232B60236007B0F0BD00BF9014FF1FC5
:10052000EC11FF1FE811FF1FE411FF1FFC06FF1F66
:10053000CC8100004807FF1F10B5054C204600F095
:1005400087F82046034A0449BDE8104003F0CEBCBA
:10055000C411FF1FF806FF1F6D06000010B5054C03
:10056000204600F075F82046034A0449BDE81040D3
:1005700003F0BCBCF011FF1FF806FF1F6D06000062
:1005800000207047704700BF10B582B002AB026810
:1005900003F8011D546819460122A04702B010BD9E
:1005A000C06938B18369C06847F6FF72181A904273
:1005B00028BF1046704700BFC36910B504463BB161
:1005C00000201871E06900F021FDE3691B791BB17F
:1005D00001232371002010BD10BD00BFC06978B198
:1005E00000B583B001220DF1070100F03BFC0128AA
:1005F0000CBF9DF807004FF0FF3003B05DF804FB1F
:100600004FF0FF30704700BFC369C3B110B582B06F
:100610000446012218460DF1070100F023FC0128D1
:1006200003D04FF0FF3002B010BDE0699DF80740E5
:10063000C168013900F0B2FC204602B010BD184676
:10064000704700BFC06908B100F0DABC704700BF56
:100650004FF47A72044982600022016002710273D1
:10066000C2614273704700BFDC810000704700BF69
:10067000064B074ADA620221002259609A7083F819
:10068000242083F8302083F8322070471012FF1F97
:10069000008200002149224A0B6843F080030B606E
:1006A00011461368DB07FCD40B689B07F9D41D4B7C
:1006B00030B44FF08072194D186000E0A2B1296883
:1006C000194B164C0B40013A002BF7D062B1012BAD
:1006D0000AD1236813F0800F23680FD043F0011371
:1006E0002360032030BC70470C4A136843F4702326
:1006F00043F001031360012030BC704713F48033D2
:1007000005D0236843F0011323600520F4E7226835
:1007100042F0010218462260EEE700BF30100B40A5
:1007200024100B400C100B4001000E0070B50D4D55
:100730000D480E4E00232B60FFF7ACFF63240346E9
:1007400006E04BB92B60FFF7A5FF013C034605D03F
:10075000326805485207F4D4184670BD002808BF17
:10076000052070BD08100B400000DB0C24100B406E
:10077000F8B5384B1A780AB10320F8BD5B78064605
:1007800003B94902344D354C354B36484FF6FF77A7
:100790004FF481322F6021601A60FFF77BFF002841
:1007A000EBD1314B31491B681C3406F1400206F590
:1007B00010702B68284F43F0200613F4E00F2E60D2
:1007C0003ED123681E05FCD50B6842F8403C0B68FF
:1007D00042F83C3C0B6842F8383C0B6842F8343C29
:1007E0000B6842F8303C0B6842F82C3C0B6842F82E
:1007F000283C0B6842F8243C0B6842F8203C0B680C
:1008000042F81C3C0B6842F8183C0B6842F8143C58
:100810000B6842F8103C0B6842F80C3C0B6842F83D
:10082000083C0B6842F8043C40328242C1D10020AF
:1008300009490B68084A9B07FBD50D4B1360F8BDAF
:1008400043F4E00343F020033B60FFF76FFF012018
:10085000EEE700BF6412FF1F30100B4008100B4082
:1008600004100B4010003A1110100B4020100B40E8
:1008700022000001F8B52B4B1A780AB10320F8BD0D
:100880005B78044603B94902274D284E284B294876
:100890004FF6FF774FF481322F6031601A60FFF717
:1008A000F9FE0028EBD1244B24491B682E4604F5A1
:1008B00000772B681C4AD806FBD5336813F4E00F89
:1008C0001AD104F1400254F8043B0B60A242FAD161
:1008D0002B68DFF854E043F010032B602B6813F40F
:1008E000E00013D19742E4D10F490B680E4A9B07F1
:1008F000FBD5134B1360F8BD136843F4E00343F0DA
:1009000010031360FFF712FF0120EDE7DEF800305F
:1009100043F4E00343F01003CEF80030FFF706FF86
:100920000120E1E76412FF1F30100B4008100B405C
:1009300004100B4000003A1810100B4020100B4020
:100940001200000110B50121007801F0B5F80E4A3F
:10095000137893B10D49CB7A00241846147063B113
:10096000DC0703D50A4A8869106018469A0705D43F
:10097000430702D5074B0A6A1A6010BD064BCA69C5
:10098000C87A1A60F4E700BF7812FF1F0407FF1F40
:1009900000E100E008E100E004E100E01E4B1A780D
:1009A0001AB10078002101F087B870B41B4A1C49C5
:1009B000D47A096801251D70ECB172B6D37ADE07CE
:1009C0001C4606D5174DD4682E68344094612C60BF
:1009D0001C469D0706D5144D13692E68D47A334002
:1009E000D3612B60630705D5104C536925682B40F4
:1009F0001362236062B61368DA688A4207D00C4C2F
:100A00001C600C4AD96041F080441C611A60007877
:100A1000002170BC01F050B87812FF1F0407FF1FBF
:100A20007412FF1F80E100E084E100E088E100E053
:100A300001403F0000003F80F0B41248124A0368B2
:100A400082B016460093009F4FF00045FF241368C4
:100A500043F480631360D5625463D36A002BFCDADD
:100A6000B36BDBB2FF2B09D003680193019BDB1B47
:100A70008B42ECD3002002B0F0BC7047012002B0E2
:100A8000F0BC70479014FF1F00C00240F8B50D463F
:100A90004FF4967116460446FFF7CEFF284B1A68AE
:100AA0004FF0004042F4806245F040011A60D86285
:100AB0001A465963D36A002BFCDA214918204FF0FB
:100AC00000470A6826FA00F342F48062DBB20A604B
:100AD000CF624B63CB6A002BFCDA083810F1080FA9
:100AE000EFD155B3082D0CBF8721FF21144B1A6895
:100AF0004FF0004042F480621A60D8621A4659638F
:100B0000D36A002BFCDA0E4A002716464FF0004548
:100B1000FF21136843F480631360D5625163D36A85
:100B2000002BFCDAB36BD8B21B06607000D4F8BDA2
:100B30000137B7F5807FECD1F8BD9521D6E700BF2E
:100B400000C00240F0B41549154A0B6882B0164641
:100B50000093009F4FF00045FF24136843F4806327
:100B60001360D5625463D36A002BFCDAB36BDBB23B
:100B7000FF2B43700AD10B680193019BDB1BB3F57C
:100B8000967FEAD9002002B0F0BC7047A3F1FE00C6
:100B9000B0FA80F0400902B0F0BC70479014FF1F1B
:100BA00000C00240F8B58378032B0E46044618BFF8
:100BB0004E021546FFF7F2FE324611212046FFF79E
:100BC00065FF18B92046FFF7BDFF20B92046FFF7A3
:100BD000B9FE0020F8BD204B2049214A1A608E46FC
:100BE00059631A4659631E46596305F5FD70A91CE1
:100BF00005F5FE77D36A13F0F00FFBD0C6F834E0AA
:100C0000B36B01F8013C1B1201F8023C02318F4228
:100C1000F0D105F50075A8420DD20F4A1646D36AE9
:100C200013F0F00FFBD0B36B191200F8021BA842AF
:100C300000F8013CF3D3084B0949084A19601946EA
:100C40005A63CB6A044A13F0F00FFAD02046936B34
:100C5000FFF778FE0120F8BD00C00240FFFF0090C2
:100C600000041F80F0B4314E33684FF0004743F466
:100C7000806333603D46F762344671633346511CEE
:100C800002F20127E26A002AFCDA1A6811F8016C04
:100C900042F480621A60DD625E63E26A002AFCDA76
:100CA0001A6811F8026B42F480628F421A60DD62AA
:100CB0005E63E7D11D49CA6A1C4B002AFBDA1A6839
:100CC0004FF0004542F48062FF241A601946DD624D
:100CD0005C63CB6A154A002BFBDA13684FF00045C2
:100CE00043F48063FF2413601146D5625463CB6ADA
:100CF0000E4A002BFBDA13684FF0004543F4806383
:100D0000FF2413601146D5625463CB6A074A002B57
:100D1000FBDA936BDBB203F01F024370A2F1050014
:100D2000B0FA80F04009F0BC704700BF00C002403C
:100D300070B5044671B18378032B0D4618BF4D0280
:100D40001646FFF72BFE2A4618212046FFF79EFE87
:100D5000054620B12046FFF7F5FD002070BD324664
:100D6000FE212046FFF77EFF0028F3D04FF41671D6
:100D70002046FFF761FE0028ECD02A460D212046D0
:100D8000FFF784FE0028E5D10B4B1A684FF00045B1
:100D900042F48062FF201A601946DD625863CB6A14
:100DA000054A002BFBDA936B13F0FF0FD2D12046DC
:100DB000FFF7C8FD012070BD00C00240014B024A90
:100DC0001A6070477412FF1F0320003838B590F97D
:100DD0000530002B03DBBDE8384000F01BBA0446A9
:100DE0000121006900F056FAF8B1257D104B13EB94
:100DF00045151AD0A3790F4A012B9CBFA369EB615B
:100E0000E36912686B831B0CAB8232B105F11601EA
:100E100005F1180090472B8B6B82637903F07F03F9
:100E20006371BDE8384000F0F5B9002038BD00BF5F
:100E30008812FF1F7C12FF1F10B500F10802044644
:100E40000121006A00F0CEFA50B1E3693BB9637941
:100E5000A268E26163F07F036371012010BD01208D
:100E600010BD00BF837913B94FF0FF3070472DE9F3
:100E7000F04F8B464179C90783B005465BD5C16801
:100E80008469641A944228BF144626460194002CB3
:100E900069D01A46022ADFF8FC903D4FDFF8F8804F
:100EA000C1F3080A42D0286A0479013C04EA5124BB
:100EB000E4B2BAF1000F62D1002C60D1002956D102
:100EC000EA69AA6090F810E04169023A02FA0EF26B
:100ED00021441144CAF500746A79B442A8BF34466B
:100EE00053062DD4B4F5007F2AD00846002100F027
:100EF000D1F900B30AEB090E0EEB040086450BD0C6
:100F00000BF1FF32734613F8011B02F8011F9842E0
:100F1000F9D1CEEB00008344E968361B2144E96037
:100F200021D0AA79022AC1F3080ABCD12A6A506AE0
:100F300000EB5121CEE74FF0FF3003B0BDE8F08F5A
:100F40003A689142D1D0D8F800000378FE2B18D02F
:100F50005A46FFF727FE0028EDD0E968361B2144EA
:100F6000A344E960DDD1019803B0BDE8F08F05F13D
:100F70000802A96800F0FEF90028DCD0286AAA68F7
:100F8000A0E75846FFF7F4FBB0FA80F04009E2E72B
:100F90000007FF1F8812FF1F8412FF1FF8B5837917
:100FA00013B182698A4201D20020F8BD022B0F469C
:100FB00005461AD007B32B6AE9681C7C4A1E04F167
:100FC00009037C1EDA40DC40A24211D9EB69AB6018
:100FD00005F1080606E0A968286A00F0CBF9013C93
:100FE0000028E1D03246002CF5D1EF600120F8BD99
:100FF0000029EBD0A41AEBE7AF60EF600120F8BD49
:1010000083790BB1FFF7E2BE184670472DE9F04F28
:101010008B46817985B001290746019205D00123CD
:101020003B71002005B0BDE8F08F42799107F6D5FD
:10103000530708D5FC68B9698C4200F0B480FFF70B
:10104000ADFF0028EBD0019BFC68002B4AD0DFF8F5
:10105000A491DFF8A4A1DDF80480386A0679013E86
:1010600006EA542616F0FF06C4F3080443D1002C08
:1010700041D1B968002973D1FA69002A00F0838050
:10108000BA60C4F50075ADB245453AD9057C4169F1
:10109000023AAA400E4416441FFA88F51CB9F868B3
:1010A000BA6990424FD23046012100F0F3F800288F
:1010B000B5D04C4404EB050E74450DD00BF1FF3157
:1010C000621E0EF1FF3611F8010F02F8010F964271
:1010D000F9D1C4EB0E04A344FC68B8EB05082C441A
:1010E000FC60BAD1BB69A34262D27A79BC6142F09A
:1010F00080027A7165E0C4F50075ADB24545BA6805
:10110000C4D8017C4069023A8A400644B5F5007FA4
:101110001644C3D1DAF80020964204BF4FF0FF32E4
:10112000CAF800202F4A10680278FE2A314633D0D0
:101130005A46FFF7FDFD00283FF471AF0BF5007B29
:101140004FF40075C8E700F065F800283FF467AF7A
:101150002549CAF800600A7842F001020A70A8E73F
:1011600003AA00F007F900283FF45CAF386A1F4B70
:1011700090F82050039A4FF6F871102D18BF1946B9
:101180008A42FFF47DAF3846FFF756FE00283FF451
:1011900046AF386ABA6874E75846FFF76BFBB0FA97
:1011A00080F04009C7E7019B002B7FF450AF08E0B7
:1011B0000F4B7A791B6823B1019B13B142F0800277
:1011C0007A71120709D5BB79002B3FF428AF384656
:1011D000FFF7FCFD00283FF422AF019805B0BDE801
:1011E000F08F00BF8412FF1F8814FF1FF8FFFF0F4E
:1011F0007C12FF1F8812FF1F0007FF1F00B583B07E
:1012000002AB012203F8011D1946FFF7FFFE03B0F0
:101210005DF804FB70B51A4C23780BB9012070BD42
:10122000184D194B286819680378FE2B17D0174AF8
:10123000FFF77EFD88B1164E316819B9002323707F
:10124000012070BD28680378FE2B0FD00F4AFFF7EE
:101250006FFD10B100233360F0E7002070BD0B4834
:10126000FFF708FBB0FA80F04009E3E70748FFF713
:1012700001FBB0FA80F040090028EBD1EDE700BF98
:101280008814FF1F8412FF1F0007FF1F8812FF1F13
:101290008012FF1F70B5124D2B6883420E4611D08D
:1012A0000446FFF7B7FF08B9002070BD0D4B186862
:1012B0000378FE2B0CD00C4A2146FFF773FC002864
:1012C000F2D02C60094B197831431970012070BDA0
:1012D00021460548FFF74CFAB0FA80F04009EEE7E6
:1012E0000007FF1F8412FF1F8812FF1F8814FF1FB3
:1012F000F8B590F82030C469102B1A4B05460E46FD
:1013000017461B6816D004EBD1149C4216D106F088
:101310007F06154A42F826701449287E0A7801286B
:1013200042F001020A7018D9A968114A0B441360EF
:101330000120F8BD04EB11249C4208D00021204676
:10134000FFF7A8FF50B195F82030102B07D1F6B267
:10135000054A234622F81670DEE70120F8BD234631
:10136000D5E700BF0007FF1F8812FF1F8814FF1F6B
:101370008012FF1FC36801338B4218D370B590F8F9
:101380002030102B154B044616460D46C0691B68CD
:101390000FD000EBD11098420FD105F07F01104B18
:1013A00053F8213023F070433360012070BD0020DA
:1013B000704700EB1120984207D00021FFF76AFF29
:1013C00050B194F82030102BE7D1E9B2044B33F838
:1013D00011303360012070BD002070BD0007FF1F79
:1013E0008812FF1F2DE9F04F176883B06FB30137E4
:1013F0004FF0000AC36803F1010813B38B46064699
:1014000091463C46002505E01C461F46F368013521
:10141000AB4216D9A04538BF0224214601AA304666
:1014200038BF2746FFF7A6FF631CD91B48B1019AB6
:10143000002AE9D18B4510D01C46F3680135AB4238
:10144000E8D8002003B0BDE8F08FA1F1010ABAFA94
:101450008AFA07684FEA5A1ACCE7012CF1D9F368E7
:1014600001339C42EDD86FF0704221463046FFF7C1
:101470003FFF0028E5D0A74214D2013C012CE0D95F
:10148000F36801339C42DCD8621C21463046FFF7EA
:101490002FFF0028D5D0A74204F1FF3402D0012C41
:1014A000EED1CEE7D9F8001059B10129C9D9F368B6
:1014B00001339942C5D83A463046FFF719FF002854
:1014C000BFD0C9F80070BAF1000F01D00137376002
:1014D0000120B7E710B4047F4160022CC26003D042
:1014E0005DF8044B01F0CEBA83685DF8044B1847F1
:1014F000F0B4464B464A186BDC6A017911704549D5
:1015000022790A709A6A00790870002A46D05968D0
:10151000C9688A423ED82168CC8B240402F1FF308E
:1015200065D4C0F30E00C883C88B80B2C882196B23
:101530000968C88B000452D4C2F30E00C883C88B5C
:10154000002480B212F1FF32C88218BF01229C62CF
:10155000D96A2E4809680D6800F12404A54236D0E6
:101560000068C46814F0804F0C680D6815BF2488AB
:1015700024780235013544F000440D604463196B52
:10158000254B09791970214912B1CA6A12791A706A
:10159000F0BC7047521A9A620122D9E7586B196859
:1015A00005681E4C0A63CC62CC682D681C4E24F082
:1015B00080440327B542CC6083F825701FD1037F98
:1015C0004260022BC2601ED0F0BC01F05BBA016821
:1015D00090F82400CC6840F000404863CFE7CC8B03
:1015E000C2F3080004F47E442043C883A7E7CC8BF1
:1015F000C0F3080004F47E442043C88394E72B46DC
:101600001146F0BC18478368F0BC18470407FF1F59
:101610001F8000401C8000401B80004000000FFF26
:10162000D5140000374A384913681B06FCD40B68F0
:1016300013F08003F8D172B634490A78002A5FD0DB
:10164000334A3448F0B4344C176806682568D468C7
:101650000C303E44143200681268304F35442C443C
:1016600020440244C2F34E022D4E2E482E4D2F4CE4
:1016700042F400423A60376806682D682C4A2468B4
:101680000C303E44006812682A4F35442C442044F4
:101690000244C2F34E02284E2848294D294C42F4F8
:1016A00000423A60376806682D68274A24680C3083
:1016B0003E4400681268254F35442C4420440244BF
:1016C000C2F34E02224E2348234D244C42F40042E2
:1016D0003A60376806682D68214A24680C303E4419
:1016E0000068126835442C4420440244C2F34E0280
:1016F0001C4842F4004202600B7062B6F0BC7047B6
:1017000062B6704724B0034024B00B408A14FF1F18
:1017100038B003403CB0034040B003402CB003401D
:1017200058B003405CB0034060B0034064B0034075
:101730006CB0034030B0034038B00B403CB00B40BD
:1017400040B00B4044B00B404CB00B402CB00B40B1
:1017500058B00B405CB00B4060B00B4064B00B4025
:101760006CB00B4030B00B4030B42948294A2A4BAA
:101770002A4D6024E121047011701B78284C082B3D
:1017800030D00A2B2748284937D00C2B0CBF3522E4
:101790005D2212232A60236002600B60234B2449E0
:1017A0001B78244ABBB101230B601360224B2349F1
:1017B0001B78234A012B26D9042B0FD9082B1ED9BD
:1017C000102B94BF862387230B6013601D4B0122CF
:1017D0001A7030BC70470B601360E7E784230B601E
:1017E0001360F3E700F58E200F4908302122132300
:1017F0002A60236002600B60D0E73922F7E7852377
:101800000B601360E2E780230B601360DEE700BF2C
:1018100000400740014007403C07FF1F08B003405D
:101820000CB0034008B00B400CB00B408D14FF1FF0
:1018300020B0034020B00B403D07FF1F24B0034001
:1018400024B00B408A14FF1F47282FD8334B2DE9B3
:10185000F0411E5CFF2E2BD0314B1B78002B2AD180
:1018600032062CD472B62F4D2F4C2F460123266002
:101870002B7062B672B623681B060CD43B781BB97A
:10188000F4E72B78002BF1D062B601F03FFA72B684
:1018900023681806F5D5254B1B6800222A7062B60E
:1018A000234A107843FA00F0BDE8F0810020704729
:1018B0000020BDE8F081FFF7B5FE3206D2D572B642
:1018C0001C4DDFF87C801C4C06F04007FFB206F090
:1018D0003F06D8F80030DFB123F01003C8F800301D
:1018E00001232660134A2B7062B672B6236819066C
:1018F0000CD413781BB9ECE72B78002BE9D062B637
:1019000001F004FA72B623681B06F5D50B4BC3E74A
:1019100043F01003C8F80030E2E700BFA4820000E3
:101920008A14FF1F8C14FF1F00B0034010B0034047
:101930008914FF1F8B14FF1F00B00B4010B00B4029
:101940000CB00B4008B5104C08E0236859050DD4C5
:1019500023681A050FD42368DB0411D423685803C5
:10196000F3D500F04FFA23685905F1D501F000FBDB
:1019700023681A05EFD501F091FB2368DB04EDD550
:1019800001F022FCEAE700BF3480044008B5FFF70D
:10199000D9FF00BF014B10221A807047002005407C
:1019A000704700BF094908B50B6830B16A46184452
:1019B000A2F50052904202D20860184608BD02F01B
:1019C000A1FA0C2303604FF0FF3008BD4007FF1F52
:1019D00010B4114B53F8302092F8804234B10123F7
:1019E00079B182F880305DF8044B704703EBC00397
:1019F0005B681A6851B922F002021A605DF8044B64
:101A0000704782F800315DF8044B704742F00302E2
:101A10001A605DF8044B7047EC8200001C4A02EB30
:101A2000C00301295B6811D004291BD052F8300093
:101A3000002280F8802229B1022920D0032922D057
:101A40001A6070474FF480721A60704752F8300085
:101A50004FF4A27280F880121A601A6822F02002F5
:101A60001A60704752F830104FF4A272012081F8CA
:101A700080021A601A6842F020021A60704740F231
:101A800003121A6070474FF481721A60704700BFEA
:101A9000EC82000030B4054B054D064C00221021AD
:101AA0001A602A602060196030BC704714D003406F
:101AB00004D0034000D003403F2801D8FFF788BF7F
:101AC000704700BF3F2801D8FFF7A8BF704700BF8D
:101AD0002DE9F843054672B6204F214B214A1B6879
:101AE0003C68126862B6520102D5322B88BF0134BD
:101AF00095B3C3F5EA331C4EDFF86490DFF86480D9
:101B0000BF334FF47A72A6FB031302FB04F404EB19
:101B1000931472B6D9F800103A68D8F800E062B6AB
:101B2000C1F5EA33BF33A6FB03031EF0806FC4EB9D
:101B300093134FF47A7002D0322988BF013200FB30
:101B40000233B3F57A7F04D3013D05D004F57A74EE
:101B5000DFE701F0DBF8DCE7BDE8F8839014FF1F56
:101B600018E000E004ED00E089888888F8B53E4B75
:101B70003E49DFF818C13E4E3E4ADFF814E13E4DC3
:101B80003E4C3F4F4FF0006018604FF0805018609F
:101B90004FF0005018604FF0804018604FF0004048
:101BA00018600020086028234EF6FF71CCF8001062
:101BB000CEF8003033600EF5012E13602B602360E9
:101BC00005F500253B6004F50024B36207F5002706
:101BD000936206F5012602F501220EF1100E05F6BC
:101BE000E87504F6E87407F57F67103220362B603D
:101BF0002360CEF800303B6013603360214EBB6140
:101C0000936109223260A7F5002706F58056203F30
:101C1000083638603160BB60F36047F8042C06F585
:101C2000FD2607F5FE2706F2FC76043730603960A2
:101C3000B360FB6046F8042C0836C7F8FC0F06F6C4
:101C4000FC76114831602B6023600260FFF78CFD49
:101C50003220FFF73DFF00F001FD4FF4AF70BDE80B
:101C6000F840FFF735BF00BF04E100E00480034007
:101C7000148003401C800340248003402C800340D8
:101C8000348003400080034000900B4008800340F4
:101C90000C800340431E032B14D872B60A4951F836
:101CA000230068B170B4094C058834F813204668E5
:101CB00041F82360521B24F8132062B670BC7047B1
:101CC00062B6704700207047EC14FF1FE418FF1F36
:101CD000013803280BD872B6074B53F8203043B1B4
:101CE00000205B680130002BFBD162B670470020FA
:101CF00070471846F9E700BF4015FF1FF0B472B6F1
:101D00001A491B4E012311F8014B194F9A00240761
:101D100042F0010505D556F8324064B156F8352039
:101D2000BAB10133052BEED162B6124B00221A7004
:101D3000F0BC00F017BD0F4C0F4D217847F8325022
:101D400007EB431308304A1E5860227062B6F0BC9D
:101D500070470849094B0A7847F8353007EBC50347
:101D60000830013A58600A7062B6F0E71885000042
:101D70000000FF1F6915FF1F88004000C8004000D9
:101D8000431E032B1DD81B4A400140F0100030B405
:101D9000104472B6184CE25C032A1BD8DFE802F04C
:101DA0000212151703220D88E25410F0080F14BF19
:101DB000C823882343EA054308310360416062B6C3
:101DC00030BC704708300222EDE70522EBE708300F
:101DD0000422E8E7094A52F8230038B1084A52F8C9
:101DE0002300416042F8231062B6E9E742F823106D
:101DF000034AF7E70000FF1F7815FF1F4015FF1F7C
:101E00005015FF1F2DE9F04FDFF804A3DFF804B3EE
:101E100087B044E0A94F4FEA930807EBC809013E99
:101E2000D9F8042003F00803F6B2A2F1080003F089
:101E3000FF04002B40F0FE8057F838301B0C99B29D
:101E400022F8081C002B00F0EC809D4B22F8064C79
:101E500042F8044C53F82620002A00F02B82994DBA
:101E600055F826305860984C45F8260034F816305E
:101E7000194424F8161000F055FC002800F01382D5
:101E8000924A934B19F0080F00F1080018BF13464F
:101E9000C9F8040047F8383008238AF800309AF867
:101EA0000040E4B260071AD58A4B1B78A3B18A4977
:101EB0000A7802F0FF0322B1013BDBB20B7003B9D9
:101EC00000BE86490A7802F0FF032AB1013BDBB26B
:101ED0000B70002B00F0BD8104238AF8003004F061
:101EE000080303F0FF02002B00F0C8809BF80030CD
:101EF000DBB21E098ED19C08704F57F8342007EBD7
:101F0000C401C2F38302013A49680C2A00F28580B9
:101F1000DFE802F079798383838383834283838339
:101F2000070008686E4B6F4D0193684B4A686E4E10
:101F300047F8343081B240F28164694B6A602860AE
:101F400000220120A1421A603A61BA61307000F2A9
:101F5000E380B1F5D06F80F02782B1F5817F00F08A
:101F6000E08100F2C381802900F03682822940F0AE
:101F7000DE81A9885D4B01F07F01042900F2D88140
:101F80005B4C89000B44227062701A78930740F111
:101F900022832070022023E2514B01931A683AB346
:101FA000544B514E5449188834780D784028864651
:101FB00045F0020828BF4FF0400E002C84F00104C9
:101FC0003470CEEB00000CBF8824C82407EBC80691
:101FD00080B285F0010544EA0E447260188047F82B
:101FE000384072440D70002800F0B780019B1A60E1
:101FF0003C4B1A88B2F5A06F0FD100219A78597026
:102000003E4B1A7009E0374A108842F22102904292
:1020100000F0A8802D4A47F83420394A0123137074
:102020003AE72A4A2A4B19F0080F18BF134647F817
:10203000383031E700F096FB324A334952F8263007
:10204000002B00F03B8158688C5D42F8260003F1BC
:102050000802C9F80420032C05D8DFE804F02C029C
:10206000292602228A551A8819F0080F0CBF8823E6
:10207000C82343EA024347F838300DE7E00700F190
:10208000EB80210600F12881A20706D51F4A2049CE
:1020900013780220DBB213700870E30602D51C4BE4
:1020A00010221A7007B0BDE8F08F04228A55DAE7D3
:1020B00005228A55D7E703228A55D4E70000FF1F7F
:1020C000EC14FF1F9814FF1FE418FF1FC800400006
:1020D000880040007415FF1FFD14FF1F7C15FF1FB3
:1020E0009414FF1F6015FF1FFC14FF1FC020074042
:1020F0006C15FF1FA814FF1F6815FF1F98200740CD
:10210000942007404015FF1F7815FF1F88200740C7
:10211000802007409020074042F22104A14200F0B5
:10212000948043D8B1F5086F00F0A881B1F5106F25
:1021300040F0FD80B84AB94CA978117004F18005CF
:1021400003E00834AC4200F09E81236A1906F8D5FA
:10215000606A083800F006FBF3E7BEF1400F18BFD5
:10216000002243E7AE4ACD1D11F8013B02F8013FC2
:10217000A942F9D1AB4A1268862A00F01181AA4916
:10218000AA4E0A78307882F00105002842F0020257
:102190000D700CBF8821C82147F8321007EBC2022E
:1021A00080F0010000213070516033E742F22124B9
:1021B000A14240F0FE81DFF8BCC29D4B9D49AC7846
:1021C000DCF800501D6081460C70002002908046B3
:1021D0008446044694490D7845F0020E07EBCE0381
:1021E000B9F1000F5C600CBF8824C82444EA0803DE
:1021F00085F0010447F83E3032700C70DFF81CE2C5
:102200008A4BDFF82482002840F09880BCF1400F10
:102210001BD144F0020407EBC403029FDFF8FCE18A
:102220005F60002A40F09F80020442F08802074469
:102230004EF8342086F800900D703B46402804D1BB
:1022400000207D4A019910800B607C4A01231370A5
:10225000E3E600F0F3FB3FE6704B784872491A6101
:102260004FF0020E80F800E0754F0A707549196052
:102270009960754E754D764C9A610D213970FF212C
:102280003170DFF8F4E129702270724D724A8EF8D5
:1022900000109F27012406F8047C5D600470DA605A
:1022A00007B0BDE8F08F6D4A47F838001378013366
:1022B0001370F1E543F82600694DD4E58B5D032BDF
:1022C00067D801A252F823F0991E0000991E000061
:1022D0001D2300001723000059495C4B80220D206C
:1022E00008701A70A2077FF5D8AECFE640F202322E
:1022F000914240F05681A98801F07F01042916D847
:102300006A88A2B94E4C89000C448146217841F07C
:102310000201217059E701238B55BDE500238B5540
:10232000BAE5A98801F07F01042940F24781444BB6
:102330000F221A70414A012313706EE640287FF67F
:1023400068AF44F002040EEBC401029E4E60AAB1D5
:10235000444A83F800903346403888F800504033B0
:102360004EF834206DE70204029B86F8009042F09C
:10237000C8020D7003444EF834205FE783F80090E4
:10238000029B304A88F80050403840334EF83420E1
:1023900057E719F0080F0CBF022303238B557BE589
:1023A000314A0F211170EAE6304A5468002CBED041
:1023B0006888B5F804E003E00C325468002CB6D00D
:1023C00013888342F8D153887345F5D1000A032856
:1023D0000CBF2078108903E0254C02202270627027
:1023E000EA88824280F00C810F490D78402A45F03E
:1023F000020E944607EBCE0028BF4FF0400C04EBD2
:102400000C0344600293CCEB02004FEA0C484FF0FF
:1024100001090022C824E9E67415FF1F0000FF1F10
:10242000EB18FF1FEC18FF1F6815FF1FFC14FF1FA0
:10243000F418FF1F8C15FF1FA814FF1F94200740DE
:10244000C0200740880040008820074080200740C7
:1024500098200740AC14FF1F0015FF1F6915FF1FD0
:102460009814FF1FC8004000FD14FF1F1C850000CA
:102470006C15FF1F9014FF1F8C200740684A694CA1
:1024800012782270ACE76849684B694A0291694941
:10249000694C6A4D039405964FF0000988461C4626
:1024A00016460495206828B1456800F05BF9284677
:1024B000002DF9D100232360049B30681A460023C5
:1024C00042F8293028B1456800F04CF92846002D23
:1024D000F9D100223260029A98F8003011460022A9
:1024E00041F8042B039A0291023B4FF0000122F8BD
:1024F0001910032B07D8DFE803F0340234024FF041
:10250000010388F8003009F10109B9F1040F04F161
:10251000040406F1040608F10108C3D1484B059EE6
:10252000DFF83091DFF8308100211970012518F8AB
:10253000013B09F8043B1A0718D4AC0044F002022E
:1025400044F00304002347F8323047F834303D4B61
:10255000994505F10105EAD196F8009089F001024C
:1025600033E64FF0000388F80030CCE700F0DAF8EB
:10257000AC0007EB451300F10802002837D05A6081
:10258000314B47F8343000F0CDF844F0010307EB4D
:10259000C30200F1080100B351602C4A47F8332010
:1025A000CCE7B1F5A06F7FF4C2AE00224FF0010975
:1025B0000BE642F221329142F7D0B8E66A88002A4F
:1025C0007FF4B5AE224C89000C448146217821F07D
:1025D00002012170F9E5022002E7194B44F00102E3
:1025E0001B7847F83200164A01331370A6E7144BE4
:1025F000134A1B78AC00013347F834001370C2E76C
:102600004028844628BF4FF0400C04EB0C03CCEB71
:1026100000004FEA0C48029300224FF00109D9E56F
:102620007415FF1F6C15FF1F5015FF1FEC14FF1FC3
:102630004015FF1F7815FF1FE418FF1F9814FF1F98
:102640006915FF1FD420074088004000C8004000E3
:10265000C0200740C4200740188500002DE9F8433A
:10266000244C00F091FF002204F1880023461A60F8
:102670005A60083383424FF00001F8D11E481F4AC8
:102680000368DFF890E01E4F1E4D1F4EDFF8888074
:10269000DFF888C0DFF8889043F480230360136874
:1026A0001A4843F040731360C4F307238EF80030D8
:1026B000C4F307433B70240EFF2302F5C9222C709C
:1026C00002F5847288F80030114D8CF800303370B8
:1026D000012389F8003070268EF864104FF400143E
:1026E000102107F82C3C2E70046011700EF1640E5E
:1026F000BDE8F8830000FF1F3480044000D800408C
:10270000B0200740B42007401020074004E100E05B
:1027100035E400E09C2007408020074088200740E7
:102720009420074072B60D480268B2FA82F30B2B70
:1027300010DC4FF00041D94022EA0102026062B68B
:10274000074803EBC303DB00C2180021C150104649
:102750005160704762B60020704700BF4407FF1FFA
:102760009803FF1F0D4B0E4AC31AA2FB03231B093C
:102770000B2B0CD80B4A127852B972B60A484FF09C
:102780000041026821FA03F31A43026062B67047FF
:10279000064A1278002AF0D0FFF7B0BA9803FF1F5C
:1027A000398EE3386915FF1F4407FF1F7415FF1F9B
:1027B00038B50F4D286878B143880288C1180133B5
:1027C00093420C7A02D24380204638BDFFF7CAFFFD
:1027D000002320462B6038BD064B1B782BB103200D
:1027E000FFF758FA28600028E6D14FF0FF3038BDD7
:1027F0008815FF1F7415FF1F10B5094C206818B10C
:1028000043881844007A10BD064B1B782BB1032077
:10281000FFF740FA20600028F2D14FF0FF3010BDE2
:102820008815FF1F7415FF1F044B054A1B6890880D
:102830001BB11A885B88D31A184470478815FF1F8C
:10284000E418FF1F0B4B1B789BB110B50A4C206896
:1028500048B1FFF787FF002303202360FFF71AFA30
:1028600030B1FFF77FFF0320FFF714FA0028F8D1FB
:1028700010BD70477415FF1F8815FF1F2DE9F04F1D
:10288000DFF8F89083B0012289F80020019169B344
:10289000DFF8EC80364F019E8346D8F80000B0B3D5
:1028A000344D4488C4F14001B14228BF314604EBA5
:1028B000010E00221FFA8EFE2A70761AA0F802E09E
:1028C00000F1080251B1013C224459441BF8014B6C
:1028D00002F8014F8B45F9D1B0F802E0BEF13F0F8D
:1028E0000BD8254A05211170002ED6D1019800235E
:1028F00089F8003003B0BDE8F08F40220280014625
:102900000420FFF73DFA0022C8F80020E9E73A78F2
:102910002AB3184D4DF2E9044FF0010A07E0013CDB
:1029200016D02A78A2B900F0F1F93A78BAB10420A9
:10293000FFF7CEF90728F2D889F800A0FFF7F2FEDA
:10294000C8F800000028ACD10C4B013C1870E8D14D
:1029500001234FF0FF302B7003B0BDE8F08F002350
:102960004FF0FF3089F8003003B0BDE8F08F00BFB2
:102970007415FF1F8415FF1F7C15FF1F7D15FF1F9A
:102980008015FF1F00B583B002AB012103F8010DD4
:102990001846FFF773FF03B05DF804FB38B50E4D22
:1029A0000E4C28680123237028B14088002323702F
:1029B000C0F1400038BD0A4B1B7813B900202070CD
:1029C00038BD0420FFF784F90728F7D8FFF7AAFEDF
:1029D00028600028E9D1F1E78015FF1F7D15FF1F52
:1029E0007415FF1FF8B5114B1B788BB1104E114DAC
:1029F000346801272F7064B10F4A6388002717706D
:102A0000214623800420FFF7BBF9376000232B7099
:102A1000F8BDFFF787FE084B28B1014604201C7063
:102A2000FFF7AEF9F2E71F70F0E700BF7415FF1F64
:102A30008015FF1F7D15FF1F7C15FF1F38B50E4B3E
:102A40001B7873B90D4C216861B103F0FF054B8809
:102A50000B800420FFF794F9256038BD084B012254
:102A60001A7038BDFFF75EFE0028F7D00146BDE8BA
:102A700038400420FFF784B97D15FF1F8015FF1F24
:102A80007C15FF1F10B4EFF3108272B6437F33B989
:102A9000017F012908D0032910D00123437702B90F
:102AA00062B65DF8044B7047114C2168A1B1114921
:102AB00043610B68836108605861EEE70E4C216842
:102AC00081B10E4943610B688361086058610C4B0A
:102AD0004FF080511960E0E7064B41618161206051
:102AE0001860DAE7054B4161816120601860EEE70C
:102AF000A015FF1F9C15FF1F9015FF1F9415FF1FAA
:102B000004ED00E070B5EFF3108272B60C4C206853
:102B100080B10C4E00254369236073B19D6102B9F9
:102B200062B6457783689847EFF3108272B62068E3
:102B30000028F0D102B962B670BD3360EFE700BF84
:102B40009015FF1F9415FF1FFFF7DCBF184A30B424
:102B50001468002C27D0036821688B420ED2CB1A50
:102B600000218460C1602360E0601060022303756F
:102B700030BC704711688B42144608D3A2685B1AB8
:102B80000360002AF6D18260C460A060EEE7D268DC
:102B9000C2608460E060C568CB1A0222A86023602E
:102BA000027530BC70478460C4601060DEE700BF0F
:102BB0009815FF1FF8B5224E34682CB32368002BFC
:102BC0003AD1204F1D4604E03468ECB12368002B55
:102BD00032D1A36803B1DD602069336003682575D5
:102BE0001B68BB4221D1037F4560022BC46020D00B
:102BF000FFF748FF6368002BE6D023602046FFF70D
:102C0000A5FF3468002CE1D1EFF3108372B60E4AB1
:102C100000211068116003B962B628B18468FFF71B
:102C200095FF20460028F9D1F8BD2246002198479B
:102C3000E0E783689847DDE7013B2360E4E700BFF6
:102C40009815FF1FD5140000A815FF1F024A13682E
:102C500001331360FFF7AEBF9014FF1F08B5FDF7F7
:102C600005FCFDF72DFC00F051F8FAE7F8B572B15C
:102C700006460F4614460025336817F8011B1B68EB
:102C800030469847013C0544F6D12846F8BD154624
:102C9000FBE700BF00B5064A036812885B6883B093
:102CA00001A9ADF804200222984703B05DF804FBA7
:102CB000EC84000010B5036814465B689847204612
:102CC00010BD00BF0EB400B582B003AA52F8041BB9
:102CD000019201F069FF02B05DF804EB03B07047A8
:102CE000FFF7B0BDFFF788BDFFF762BDFFF79CBDE2
:102CF000FFF778BEFFF752BE08461146FFF7BEBD8C
:102D00000846FFF73FBE00BF704700BF38B52C4CE8
:102D1000237803B138BD01232370FFF785FD002818
:102D200042D100F015F900283BD100F0A7F90028A6
:102D300034D100F039FA70BB00F0B2FA40BB00F0B9
:102D40002BFB10BB00F0A4FBE0B900232370EFF3D2
:102D50000583002BDED1EFF3108172B6194B186892
:102D600028B3194C227812BB45691D6001232370DA
:102D70000DB3AA6101B962B600254577836898470B
:102D80002570C7E700F048FCDFE700F043FCD9E717
:102D900000F03EFCD3E700F039FCCDE700F034FC56
:102DA000C7E700F02FFCC0E7FFF7AEFFB9E7002947
:102DB000B0D162B638BD054B1D600029DCD1DAE721
:102DC000AC15FF1FA015FF1FA415FF1F9C15FF1FAB
:102DD000844641EA000313F003036DD1403A41D326
:102DE00051F8043B40F8043B51F8043B40F8043BE5
:102DF00051F8043B40F8043B51F8043B40F8043BD5
:102E000051F8043B40F8043B51F8043B40F8043BC4
:102E100051F8043B40F8043B51F8043B40F8043BB4
:102E200051F8043B40F8043B51F8043B40F8043BA4
:102E300051F8043B40F8043B51F8043B40F8043B94
:102E400051F8043B40F8043B51F8043B40F8043B84
:102E500051F8043B40F8043B51F8043B40F8043B74
:102E6000403ABDD2303211D351F8043B40F8043B14
:102E700051F8043B40F8043B51F8043B40F8043B54
:102E800051F8043B40F8043B103AEDD20C3205D324
:102E900051F8043B40F8043B043AF9D2043208D01C
:102EA000D2071CBF11F8013B00F8013B01D30B888E
:102EB00003806046704700BF082A13D38B078DD06C
:102EC00010F003038AD0C3F10403D21ADB071CBF3E
:102ED00011F8013B00F8013B80D331F8023B20F8A8
:102EE000023B7BE7043AD9D3013A11F8013B00F8E1
:102EF000013BF9D20B7803704B7843708B78837069
:102F000060467047F0B44D1E2E46002400E00134A8
:102F1000B0FBF2F302FB1300092800F130078ABF6F
:102F20003730F8B2C0B206F8010F1846002BEED1C8
:102F30000A1953704CB1107815F8016F28700133DD
:102F4000E01A834202F80169F5DB0846F0BC7047DD
:102F5000054A064B10781B78C0B2DBB2984238BFE6
:102F60004030C01A704700BFB415FF1FB515FF1FD2
:102F7000F0B4384B1A7912F0300F2CD072B6997D1C
:102F800001F0FF0200293DD062B6334F3349387853
:102F90000D78334E1C46C0B2EDB2431C402BE17994
:102FA00028BF0023AB4202F1FF32C9B21CBFF1546B
:102FB000184612F0FF02F0D12A4B1B68C2B23A70D9
:102FC0004BB1A84236BFC5F14005401B4019272828
:102FD000C4BF01221A701F49CA78D2B2150616D48E
:102FE00052060DD51B4B1B795B0609D51E4B1F499D
:102FF0001B6800220A7003B11A70164B3C22DA706B
:10300000F0BC70474022D9795A7462B6E3E70B7975
:103010001C06E5D5164B174E1C783378E4B2DBB2AC
:103020009C420ED0144D01E0A3420AD00133402B44
:1030300028BF00230879E85CC0B2C871087D072862
:10304000F2D9DBB2034933700B79180644BF7C23F5
:10305000CB70C5E700A00640B415FF1FB515FF1FD4
:10306000F815FF1FB015FF1F3C16FF1F3816FF1F76
:103070004016FF1F3916FF1FB815FF1F054A064BE4
:1030800010781B78C0B2DBB2984238BF4030C01A0B
:10309000704700BFB416FF1F4916FF1FF0B4384B2E
:1030A0001A7912F0300F2CD072B6997D01F0FF0220
:1030B00000293DD062B6334F334938780D78334E0E
:1030C0001C46C0B2EDB2431C402BE17928BF00235F
:1030D000AB4202F1FF32C9B21CBFF154184612F0E4
:1030E000FF02F0D12A4B1B68C2B23A704BB1A84222
:1030F00036BFC5F14005401B40192728C4BF012237
:103100001A701F49CA78D2B2150616D452060DD5C8
:103110001B4B1B795B0609D51E4B1F491B68002200
:103120000A7003B11A70164B3C22DA70F0BC70477B
:103130004022D9795A7462B6E3E70B791C06E5D5CB
:10314000164B174E1C783378E4B2DBB29C420ED09B
:10315000144D01E0A3420AD00133282B28BF0023DD
:103160000879E85CC0B2C871087D0728F2D9DBB2E3
:10317000034933700B79180644BF7C23CB70C5E735
:1031800000B00640B416FF1F4916FF1F7416FF1F3C
:103190004416FF1FB816FF1F4816FF1FBC16FF1F5F
:1031A000B516FF1F4C16FF1F054A064B10781B78FB
:1031B000C0B2DBB2984238BF4030C01A704700BF7F
:1031C000C416FF1FC516FF1F30B42B4B1A79940687
:1031D0001FD52A48DA790378294901333F2B09782A
:1031E000C8BF00238B42D2B203D0264CD9B2E254DE
:1031F0000170254A116861B1244A1278D2B2934213
:1032000036BFC2F140029B1A9B18272BC4BF012373
:103210000B70194AD378DBB2180611D45A060DD5B3
:10322000154B1B795B0609D5194B1A491B680022FF
:103230000A7003B11A70104B2C22DA7030BC704740
:1032400011790906EAD5144910480C780178C9B2F9
:103250008C420DD04A1C272A84BF00210A460F4DFC
:10326000054C98BFD1B2AA5CD2B2E2710170D5E729
:103270006C21D170D2E700BF00C00640C416FF1F0A
:10328000C516FF1FF016FF1FC016FF1F3117FF1FC7
:103290003417FF1F3017FF1F3817FF1FC816FF1FF7
:1032A000054A064B10781B78C0B2DBB2984238BF93
:1032B0004030C01A704700BF4017FF1F4117FF1F63
:1032C00030B42B4B1A7994061FD52A48DA79037843
:1032D000294901333F2B0978C8BF00238B42D2B262
:1032E00003D0264CD9B2E2540170254A116861B16D
:1032F000244A1278D2B2934236BFC2F140029B1ADE
:103300009B18272BC4BF01230B70194AD378DBB25B
:10331000180611D45A060DD5154B1B795B0609D535
:10332000194B1A491B6800220A7003B11A70104B1E
:103330002C22DA7030BC704711790906EAD514499D
:1033400010480C780178C9B28C420DD04A1C272A4B
:1033500084BF00210A460F4D054C98BFD1B2AA5C2C
:10336000D2B2E2710170D5E76C21D170D2E700BF13
:1033700000D006404017FF1F4117FF1F6C17FF1FAB
:103380003C17FF1FAD17FF1FB017FF1FAC17FF1F24
:10339000B417FF1F4417FF1F054A064B10781B7810
:1033A000C0B2DBB2984238BF4030C01A704700BF8D
:1033B000BC17FF1FBD17FF1F30B42B4B1A799406A3
:1033C0001FD52A48DA790378294901333F2B097838
:1033D000C8BF00238B42D2B203D0264CD9B2E254EC
:1033E0000170254A116861B1244A1278D2B2934221
:1033F00036BFC2F140029B1A9B18272BC4BF012382
:103400000B70194AD378DBB2180611D45A060DD5C1
:10341000154B1B795B0609D5194B1A491B6800220D
:103420000A7003B11A70104B2C22DA7030BC70474E
:1034300011790906EAD5144910480C780178C9B207
:103440008C420DD04A1C272A84BF00210A460F4D0A
:10345000054C98BFD1B2AA5CD2B2E2710170D5E737
:103460006C21D170D2E700BF00A00E40BC17FF1F37
:10347000BD17FF1FE817FF1FB817FF1F2918FF1FF1
:103480002C18FF1F2818FF1F3018FF1FC017FF1F21
:10349000054A064B10781B78C0B2DBB2984238BFA1
:1034A0004030C01A704700BF3818FF1F3918FF1F7F
:1034B00030B42B4B1A7994061FD52A48DA79037851
:1034C000294901333F2B0978C8BF00238B42D2B270
:1034D00003D0264CD9B2E2540170254A116861B17B
:1034E000244A1278D2B2934236BFC2F140029B1AEC
:1034F0009B18272BC4BF01230B70194AD378DBB26A
:10350000180611D45A060DD5154B1B795B0609D543
:10351000194B1A491B6800220A7003B11A70104B2C
:103520002C22DA7030BC704711790906EAD51449AB
:1035300010480C780178C9B28C420DD04A1C272A59
:1035400084BF00210A460F4D054C98BFD1B2AA5C3A
:10355000D2B2E2710170D5E76C21D170D2E700BF21
:1035600000B00E403818FF1F3918FF1F6418FF1FE6
:103570003418FF1FA518FF1FA818FF1FA418FF1F4E
:10358000AC18FF1F3C18FF1F72B6184A184B194998
:103590001160702280211A701A46197013781B0668
:1035A000FCD510B5144B84B0186862B6134B144C9C
:1035B000984298BF00EB800001A998BF40000A2202
:1035C000FFF7A0FC01A92046002311F8012B0133CD
:1035D0003AB10A2B20F8022FF7D11623237004B03A
:1035E00010BD5B00DBB2237004B010BD04000240CC
:1035F00000000240000007410C0002407F96980046
:10360000E407FF1F704700BF704700BF704700BF4F
:10361000704700BF704700BF704700BF81F0004196
:1036200002E000BF83F0004330B54FEA41044FEAA7
:10363000430594EA050F08BF90EA020F1FBF54EA42
:10364000000C55EA020C7FEA645C7FEA655C00F0DE
:10365000E2804FEA5454D4EB5555B8BF6D420CDDAF
:103660002C4480EA020281EA030382EA000083EA32
:10367000010180EA020281EA0303362D88BF30BDD2
:1036800011F0004F4FEA01314FF4801C4CEA113128
:1036900002D0404261EB410113F0004F4FEA033387
:1036A0004CEA133302D0524263EB430394EA050F12
:1036B00000F0A780A4F10104D5F1200E0DDB02FA81
:1036C0000EFC22FA05F2801841F1000103FA0EF215
:1036D000801843FA05F359410EE0A5F120050EF1DB
:1036E000200E012A03FA0EFC28BF4CF0020C43FA0C
:1036F00005F3C01851EBE37101F0004507D54FF019
:10370000000EDCF1000C7EEB00006EEB0101B1F568
:10371000801F1BD3B1F5001F0CD349085FEA3000AE
:103720004FEA3C0C04F101044FEA445212F5800FB9
:1037300080F09A80BCF1004F08BF5FEA500C50F156
:10374000000041EB045141EA050130BD5FEA4C0C39
:10375000404141EB010111F4801FA4F10104E9D1C2
:1037600091F0000F04BF01460020B1FA81F308BFB9
:103770002033A3F10B03B3F120020CDA0C3208DD85
:1037800002F1140CC2F10C0201FA0CF021FA02F160
:103790000CE002F11402D8BFC2F1200C01FA02F1D0
:1037A00020FA0CFCDCBF41EA0C019040E41AA2BFF5
:1037B00001EB0451294330BD6FEA04041F3C1CDABD
:1037C0000C340EDC04F11404C4F1200220FA04F0DD
:1037D00001FA02F340EA030021FA04F345EA030187
:1037E00030BDC4F10C04C4F1200220FA02F001FA49
:1037F00004F340EA0300294630BD21FA04F02946CB
:1038000030BD94F0000F83F4801306BF81F4801163
:103810000134013D4EE77FEA645C18BF7FEA655CD6
:1038200029D094EA050F08BF90EA020F05D054EAA8
:10383000000C04BF1946104630BD91EA030F1EBFAD
:103840000021002030BD5FEA545C05D140004941B1
:1038500028BF41F0004130BD14F580043CBF01F5A4
:10386000801130BD01F0004545F0FE4141F470018A
:103870004FF0000030BD7FEA645C1ABF1946104665
:103880007FEA655C1CBF0B46024650EA013406BF66
:1038900052EA033591EA030F41F4002130BD00BF25
:1038A00090F0000F04BF0021704730B54FF48064E2
:1038B00004F132044FF000054FF0000150E700BF63
:1038C00090F0000F04BF0021704730B54FF48064C2
:1038D00004F1320410F0004548BF40424FF00001AF
:1038E0003EE700BF42004FEAE2014FEA31014FEAF2
:1038F00002701FBF12F07F4393F07F4F81F0605141
:10390000704792F0000F14BF93F07F4F704730B5AF
:103910004FF4607401F0004521F0004120E700BF42
:1039200050EA010208BF704730B54FF000050AE0C9
:1039300050EA010208BF704730B511F0004502D5CA
:10394000404261EB41014FF4806404F132045FEACC
:10395000915C3FF4DCAE4FF003025FEADC0C18BF71
:1039600003325FEADC0C18BF033202EBDC02C2F167
:10397000200300FA03FC20FA02F001FA03FE40EAF9
:103980000E0021FA02F11444C1E600BF70B54FF0F9
:10399000FF0C4CF4E06C1CEA11541DBF1CEA1355DB
:1039A00094EA0C0F95EA0C0F00F0DEF82C4481EA43
:1039B000030621EA4C5123EA4C5350EA013518BF63
:1039C00052EA033541F4801143F4801338D0A0FB50
:1039D00002CE4FF00005E1FB02E506F00042E0FBFD
:1039E00003E54FF00006E1FB03569CF0000F18BF03
:1039F0004EF0010EA4F1FF04B6F5007F64F54074AB
:103A000004D25FEA4E0E6D4146EB060642EAC6213D
:103A100041EA55514FEAC52040EA5E504FEACE2EAA
:103A2000B4F1FD0C88BFBCF5E06F1ED8BEF1004FAD
:103A300008BF5FEA500E50F1000041EB045170BD29
:103A400006F0004646EA010140EA020081EA03016D
:103A5000B4EB5C04C2BFD4EB0C0541EA045170BD69
:103A600041F480114FF0000E013C00F3AB8014F1E3
:103A7000360FDEBF002001F0004170BDC4F100042C
:103A8000203C35DA0C341BDC04F11404C4F12005AD
:103A900000FA05F320FA04F001FA05F240EA020008
:103AA00001F0004221F0004110EBD37021FA04F63E
:103AB00042EB06015EEA430E08BF20EAD37070BDF8
:103AC000C4F10C04C4F1200500FA04F320FA05F057
:103AD00001FA04F240EA020001F0004110EBD37059
:103AE00041F100015EEA430E08BF20EAD37070BDC9
:103AF000C4F1200500FA05F24EEA020E20FA04F3A2
:103B000001FA05F243EA020321FA04F001F0004150
:103B100021FA04F220EA020000EBD3705EEA430EC1
:103B200008BF20EAD37070BD94F0000F0FD101F0F0
:103B30000046400041EB010111F4801F08BF013C29
:103B4000F7D041EA060195F0000F18BF704703F067
:103B50000046520043EB030313F4801F08BF013DEE
:103B6000F7D043EA0603704794EA0C0F0CEA1355AA
:103B700018BF95EA0C0F0CD050EA410618BF52EA64
:103B80004306D1D181EA030101F000414FF000006A
:103B900070BD50EA410606BF1046194652EA430678
:103BA00019D094EA0C0F02D150EA013613D195EAEC
:103BB0000C0F05D152EA03361CBF104619460AD134
:103BC00081EA030101F0004141F0FE4141F470013E
:103BD0004FF0000070BD41F0FE4141F4780170BD2E
:103BE00070B54FF0FF0C4CF4E06C1CEA11541DBF93
:103BF0001CEA135594EA0C0F95EA0C0F00F0A7F895
:103C0000A4EB050481EA030E52EA03354FEA0131C1
:103C100000F088804FEA03334FF0805545EA1313D4
:103C200043EA12634FEA022245EA111545EA10659C
:103C30004FEA00260EF000419D4208BF964244F133
:103C4000FD0404F5407402D25B084FEA3202B61A52
:103C500065EB03055B084FEA32024FF480104FF426
:103C6000002CB6EB020E75EB030E22BFB61A75469A
:103C700040EA0C005B084FEA3202B6EB020E75EB2D
:103C8000030E22BFB61A754640EA5C005B084FEA95
:103C90003202B6EB020E75EB030E22BFB61A754662
:103CA00040EA9C005B084FEA3202B6EB020E75EB6D
:103CB000030E22BFB61A754640EADC0055EA060E2E
:103CC00018D04FEA051545EA16754FEA06164FEA71
:103CD000C30343EA52734FEAC2025FEA1C1CC0D11D
:103CE00011F4801F0BD141EA00014FF000004FF0AA
:103CF000004CB6E711F4801F04BF01430020B4F16B
:103D0000FD0C88BFBCF5E06F3FF6AFAEB5EB030C22
:103D100004BFB6EB020C5FEA500C50F1000041EB1F
:103D2000045170BD0EF0004E4EEA113114EB5C04EC
:103D3000C2BFD4EB0C0541EA045170BD41F48011BF
:103D40004FF0000E013C90E645EA060E8DE60CEAC7
:103D5000135594EA0C0F08BF95EA0C0F3FF43BAFE4
:103D600094EA0C0F0AD150EA01347FF434AF95EA9B
:103D70000C0F7FF425AF104619462CE795EA0C0F7F
:103D800006D152EA03353FF4FDAE1046194622E74C
:103D900050EA410618BF52EA43067FF4C5AE50EA26
:103DA00041047FF40DAF52EA43057FF4EBAE12E716
:103DB0004FF0FF3C06E000BF4FF0010C02E000BFF7
:103DC0004FF0010C4DF804CD4FEA410C7FEA6C5CDA
:103DD0004FEA430C18BF7FEA6C5C1BD001B050EA7D
:103DE000410C0CBF52EA430C91EA030F02BF90EA68
:103DF000020F0020704710F1000F91EA030F58BF27
:103E0000994208BF90422CBFD8176FEAE37040F088
:103E1000010070474FEA410C7FEA6C5C02D150EA26
:103E2000013C07D14FEA430C7FEA6C5CD6D152EAE1
:103E3000033CD3D05DF8040B704700BF84461046A6
:103E400062468C461946634600E000BF01B5FFF7A5
:103E5000B7FF002848BF10F1000F01BD4DF808ED75
:103E6000FFF7F4FF0CBF012000205DF808FB00BF46
:103E70004DF808EDFFF7EAFF34BF012000205DF8A0
:103E800008FB00BF4DF808EDFFF7E0FF94BF0120ED
:103E900000205DF808FB00BF4DF808EDFFF7CEFFEE
:103EA00094BF012000205DF808FB00BF4DF808ED2D
:103EB000FFF7C4FF34BF012000205DF808FB00BFFE
:103EC0004FEA410C7FEA6C5C02D150EA013C0AD116
:103ED0004FEA430C7FEA6C5C02D152EA033C02D108
:103EE0004FF0000070474FF0010070470B4601464D
:103EF000184600F001B800BF13460A4601460220EA
:103F000000F082BE014B1868704700BF280CFF1FED
:103F100070B50F4E0F4D761BB61018BF002405D09C
:103F2000013455F8043B9847A642F9D10A4E0B4D8F
:103F3000761B04F061FCB61018BF002406D00134D3
:103F400055F8043B9847A642F9D170BD70BD00BF3B
:103F500004880000048800001C8800000488000019
:103F6000024B0146186800F003B800BF280CFF1F81
:103F70002DE9F04F01F10B05162D83B0064640F2F6
:103F80009F8035F0070500F1BF80A94200F2BC8098
:103F900000F06EFBB5F5FC7FC0F09C826B0A00F070
:103FA000BA80042B00F28381A80900F1390E4FEA90
:103FB0004E033830C44F07EB8303A3F108015C685C
:103FC000A14207D1ACE0002A80F2AC80E468A142B3
:103FD00000F0A680636823F003035A1B0F2AF2DD6A
:103FE000B9493C6901F1080E744500F0B38163687A
:103FF00023F003035A1B0F2A00F39981002AC1F80A
:1040000014E0C1F810E080F29E80B3F5007F80F0EC
:104010006781DB0803F1010C01229B1002FA03F314
:104020004A6851F83C80C4F8088001EBCC091A4377
:10403000A9F10803E3604A6041F83C40C8F80C402D
:10404000831001249C40944200F28A80144206D1DD
:1040500020F003006400144200F10400FAD007EBE2
:10406000C009CC468046DCF80C108C4507D173E1C2
:10407000002A80F28181C9688C4500F06D814B680F
:1040800023F003035A1B0F2AF2DD0C46D1F80CC0B3
:1040900054F8088F4B1945F001054D6042F00101BD
:1040A000C8F80CC03046CCF808807B613B61C3F88F
:1040B0000CE0C3F808E059609A5000F0DBFA1FE00A
:1040C000102921D800F0D4FA1025062302207E4FB3
:1040D00007EB8303A3F108025C68944200F045817A
:1040E0006368E168A56823F00303234430465A68F7
:1040F000E96042F001028D605A6000F0BBFA0834BA
:10410000204603B0BDE8F08F00240C232046336026
:1041100003B0BDE8F08F80234FF0400E3F2049E709
:1041200070465DE72344E1685A68A56842F00102E1
:10413000E96030468D605A6000F09CFA08342046F1
:1041400003B0BDE8F08F234430465A6842F00102C4
:104150005A6000F08FFA0834204603B0BDE8F08FB3
:10416000BC68636823F00308A84504D3C5EB0803C3
:104170000F2B00F38C80554BDFF860911A68D9F84B
:10418000003001332A4404EB080A00F0608102F594
:1041900080520F3222F47F6222F00F021146304625
:1041A000019200F059FCB0F1FF3F8346019A00F004
:1041B0005881824500F2FC80454B1968DA4511446C
:1041C000196000F05381D9F80000DFF810E10130E8
:1041D0001BBFCAEB0B0A5144CEF800B019601BF0AC
:1041E000070100F01781C1F10800C1F58051834437
:1041F00008315A44C2F30B02C2EB0109494630466A
:10420000019300F029FC431C019B00F03F81CBEBA4
:1042100000024A4442F001021968C7F808B0494454
:10422000BC42CBF804201960DFF8A49016D0B8F196
:104230000F0F40F2FD806268A8F10C0323F0070322
:10424000E01802F001024FF0050E1A430F2B6260D6
:10425000C0F804E0C0F808E000F21C811D4BBC6807
:104260001A68914288BF19601B4B1A6891426268B4
:1042700088BF196022F003029542A2EB050301D822
:104280000F2B04DC304600F0F5F9002438E7621902
:1042900043F0010345F0010565603046BA605360A4
:1042A00000F0E8F90834204603B0BDE8F08F142B85
:1042B00071D9542B00F2A480280B00F16F0E4FEA45
:1042C0004E036E3076E600BF980DFF1FB818FF1F33
:1042D000BC18FF1FB418FF1FB018FF1FA411FF1F49
:1042E0005A0A042A5ED9142A00F2B38002F15C0152
:1042F00049005B3207EB810C57F82110DFF8DC81B5
:10430000ACF1080C8C4500F088804A6822F003026A
:10431000934202D289688C45F7D1D1F80CC07A68F3
:10432000C4F80CC0A160CCF80840CC6088E66319E2
:1043300042F0010745F00105656030464B610B61B5
:10434000C3F80CE0C3F808E05F609A50083400F04E
:1043500091F9D5E64A6873E608F1010818F0030FF1
:104360000CF1080C7FF47FAE30E0DC68A34208BF9C
:1043700002303FF435AEB3E60B440C465A68C968C8
:1043800054F8085F42F001025A603046E9608D60DF
:1043900000F070F9B4E603F15C0E03F15B004FEA44
:1043A0004E0307E69A0902F1390149003832A1E7C4
:1043B000BC424A4B3FF400AF9C68626822F00302A3
:1043C0005AE759F80839994540F0828010F0030FF8
:1043D00000F1FF30F5D17B6823EA04037B606400C1
:1043E0009C423FF6BDAE002C3FF4BAAE1C424046A4
:1043F0007FF435AE64001C4200F10400FAD02EE6D2
:10440000B3F5AA7F18D8E80B00F1780E4FEA4E03F7
:104410007730CFE54FF48051EBE60121D8F8043036
:10442000921001FA02F21A43C8F80420614677E7B5
:104430000123CBF8043025E740F25452934220D8B0
:10444000A80C00F17D0E4FEA4E037C30B2E510322D
:10445000A4E6542A26D81A0B02F16F0149006E32E5
:1044600048E7BC68626822F0030205E7CAF30B0064
:1044700000287FF4A8AE4244BB6842F001025A60B3
:10448000ECE6FE234FF07F0E7E2093E501224FF0F5
:104490000009C1E604F10801304600F079FCD9F8C2
:1044A0000010DBE6B2F5AA7F05D8DA0B02F178013D
:1044B000490077321EE740F254518A4205D89A0CDF
:1044C00002F17D0149007C3214E7FE217E2211E7D2
:1044D0007B6884E7E808431C5B00F8E5980DFF1F44
:1044E00082B049B15AB16BB113780B601278101CCD
:1044F00018BF012002B0704701A9002AF3D110466D
:1045000002B070476FF00100F4E700BF8842F0B5D9
:104510000DD98B1898420AD28118002A51D09A1AC4
:1045200013F8014D01F8014D9342F9D1F0BD0F2A66
:1045300048D941EA00039B0746D100F1100401F17C
:104540001003154653F8106C44F8106C53F80C6CBB
:1045500044F80C6C53F8086C44F8086C103D53F8A0
:10456000046C44F8046C0F2D03F1100304F11004E3
:10457000E8D8A2F1100323F00F0302F00F0E10335E
:10458000BEF1030F1944034421D91E1F0D46744682
:10459000043C55F8047B46F8047F032CF8D8AEF1B0
:1045A000040424F0030404342344214402F00302ED
:1045B00062B1013B0A4411F8014B03F8014F8A42F2
:1045C000F9D1F0BD0346F3E70346F2E7F0BD7246CA
:1045D000EEE700BF70B4840746D0541E002A41D0D5
:1045E000CDB2034602E0621EE4B3144603F8015B59
:1045F0009A07F8D1032C2ED9CDB245EA05250F2C08
:1046000045EA054519D903F110022646103E0F2E42
:1046100042F8105C42F80C5C42F8085C42F8045C1A
:1046200002F11002F2D8A4F1100222F00F0204F0FD
:104630000F041032032C13440DD91E462246043AAF
:10464000032A46F8045BFAD8221F22F00302043240
:10465000134404F003042CB1C9B21C4403F8011B39
:10466000A342FBD170BC704714460346C2E700BFAB
:10467000704700BF704700BF2DE9F04F174683B069
:10468000002900F0C1800E46814607F10B05FFF7B7
:10469000EFFF56F804EC162D2EF00304A6F10808DF
:1046A00040D810221546AF4241D8944275DAC94B22
:1046B000996808EB04008842416800F0D98021F035
:1046C000010303445B68DB077DD51EF0010F35D085
:1046D00039464846FFF74CFC0746E0B156F8043C23
:1046E00023F001034344A0F108029A4200F0448100
:1046F000221F242A00F23181132A00F2048103468A
:104700003246116819605168596092689A60314662
:10471000484600F03DFB4846FFF7ACFF384603B083
:10472000BDE8F08F25F00705002D2A46BBDA0C23E3
:104730000020C9F8003003B0BDE8F08F56F8083CFF
:10474000C3EB080ADAF8043023F0030C04EB0C0383
:104750009342BDDB5746DAF80C1057F8080F221FBA
:10476000242AC160886000F21781132A40F2128166
:104770003168CAF808107168CAF80C101B2A00F2D8
:104780002B8108360AF1100231681160716851609E
:10479000B16891603E461C46D046631B0F2B1DD866
:1047A000D8F8043003F0010323434444C8F804302C
:1047B000636843F0010363604846FFF75BFF3046E0
:1047C00003B0BDE8F08F21F003012144914221DBC9
:1047D000C36882680C46D3609A60DEE7D8F804208C
:1047E00008EB050102F00102154343F001020B44FE
:1047F000C8F804504A605A6842F0010208315A6011
:10480000484600F0C5FAD7E7114603B0BDE8F04FBF
:10481000FFF7AEBB1EF0010F7FF45AAF56F8083C0D
:10482000C3EB080ADAF8043023F0030C01EB0C0E9A
:1048300096458BDBC36882685746D3609A6057F809
:10484000081FDAF80C30CB60221F242A996000F28E
:104850009980132A62D93368CAF808307368CAF895
:104860000C301B2A00F2A08008360AF1100356E033
:1048700021F0030BA34405F11000834559DA1EF023
:10488000010F7FF425AF56F8081CC1EB080ADAF8CF
:10489000041021F0030CE34458453FF757AF574647
:1048A000DAF80C1057F8080F221F242AC16088601C
:1048B00000F2B480132A40F2A5803168CAF80810CB
:1048C0007168CAF80C101B2A00F2AF8008360AF192
:1048D00010023168116071685160B16891600AEB33
:1048E0000501C5EB0B0242F0010299604A60DAF85B
:1048F000043003F001031D434846CAF80450FFF793
:10490000B9FE38465CE733680360736843601B2A6E
:1049100027D800F1080306F10802F2E63B463268A8
:104920001A6072685A60B2689A603E467446D04611
:1049300033E708EB0501C5EB0B0B4BF00102996067
:104940004A6056F8043C03F001031D43484646F80C
:10495000045CFFF78FFE304632E73146FFF7D6FDA5
:10496000D5E6B3688360F368C360242A28D000F1D9
:10497000100306F11002C4E650F8043C23F00303D0
:104980001C440AE7314638467446D046FFF7BEFD60
:104990003E4602E73A46F7E6314638461C46D046E0
:1049A000FFF7B4FD3E46F8E6B368CAF81030F36886
:1049B000CAF81430242A1BD010360AF11803AEE7C7
:1049C000336903617369436106F1180200F118034A
:1049D00097E600BF980DFF1FB168CAF81010F16884
:1049E000CAF81410242A0FD010360AF11802CBE6A8
:1049F0003369CAF818307369CAF81C3018360AF1DE
:104A000020038CE73A4664E73269CAF818207269D5
:104A1000CAF81C2018360AF12002B5E6314638469D
:104A20000193FFF773FD019B59E7B168CAF81010B5
:104A3000F168CAF81410242A03D010360AF11802BB
:104A400047E73269CAF818207269CAF81C2018367C
:104A50000AF120023DE700BF38B5074C00230546A8
:104A600008462360FCF79EFF431C00D038BD236836
:104A7000002BFBD02B6038BDF818FF1FFFFFFFFF96
:104A800090F800F06DE9024520F007016FF0000C8E
:104A900010F0070491F820F040F049804FF0000436
:104AA0006FF00700D1E9002391F840F000F1080011
:104AB00082FA4CF2A4FA8CF283FA4CF3A2FA8CF349
:104AC0004BBBD1E9022382FA4CF200F10800A4FAB0
:104AD0008CF283FA4CF3A2FA8CF3E3B9D1E9042304
:104AE00082FA4CF200F10800A4FA8CF283FA4CF33B
:104AF000A2FA8CF37BB9D1E9062301F1200182FAF5
:104B00004CF200F10800A4FA8CF283FA4CF3A2FAFA
:104B10008CF3002BC6D0002A04BF04301A4612BA08
:104B2000B2FA82F2FDE8024500EBD2007047D1E90B
:104B3000002304F00305C4F100004FEAC50514F09A
:104B4000040F91F840F00CFA05F562EA05021CBF6B
:104B500063EA050362464FF00004A9E7F0B5ADF53E
:104B6000057D04AD00930F4613464FF4007403AA6D
:104B700029460394064600F065FD88B104460246C6
:104B80003946039B304600F029F8AC42039004D02C
:104B90003046214600F0FCF803980DF5057DF0BD88
:104BA0004FF0FF30F9E700BF10B4044C13460A463B
:104BB000014620685DF8044BFFF7D0BF280CFF1FAB
:104BC00021B1FF2A04D80A700120704708467047B7
:104BD0008A2303604FF0FF30704700BF70B50D4669
:104BE000084C114606461A46284600232360FEF765
:104BF00061F8431C00D070BD2368002BFBD03360EC
:104C000070BD00BFF818FF1F2DE9F047254C25683F
:104C1000D5F848410646884692469946C4B360682E
:104C20001F2817DC431C76B104EB80050122C5F870
:104C300088A0D4F8881182401143022EC4F888114C
:104C4000C5F808911ED00230636044F8208000202F
:104C5000BDE8F087144B03B34FF4C870FFF780F939
:104C60000446D0B1D5F84831002780E88800C5F85F
:104C7000484138460123C4F88871C4F88C71002E6D
:104C8000E1D0D1E7D4F88C110A43C4F88C21DAE7DB
:104C900005F5A674C5F84841C1E74FF0FF30BDE8FF
:104CA000F08700BF70850000613F0000024B13B128
:104CB000024800F005B8704700000000CD4C00002D
:104CC000002301461A461846FFF79EBF38B5074D28
:104CD000074C2C1BA41005D0013C55F8043D984707
:104CE000002CF9D1BDE8384003F098BD0000000069
:104CF00000000000F8B5234F0C460646FFF7B8FC4D
:104D0000BB685D6825F00305291B01F6EF7121F4EE
:104D10007F6121F00F01A1F58054B4F5805F07DBBE
:104D200000213046FFF798FEBB682B44984204D020
:104D30003046FFF79FFC0020F8BD61423046FFF788
:104D40008BFE01300DD0104BBA6819682D1B45F051
:104D500001053046091B55601960FFF78BFC0120E7
:104D6000F8BD00213046FFF777FEBA68831A0F2B93
:104D7000DEDD064C0449246843F00103001B536048
:104D80000860D5E7980DFF1FBC18FF1FA411FF1F77
:104D9000002945D02DE9F0410D468046FFF768FC1B
:104DA00055F8047C6A4927F00103A5F10804E218CC
:104DB0008E685068B24220F0030062D0FE07506057
:104DC0000BD455F8087CE41B01F1080EA568754565
:104DD0003B446FD0E768EF60BD6015186D68ED0764
:104DE00042D543F001026260E350B3F5007F18D270
:104DF000DB085A1C4D6851F83270A76001209B10E7
:104E000000FA03F301EBC2001D430838E0604D6077
:104E100041F83240FC604046BDE8F041FFF72ABC53
:104E200070475A0A042A53D89A0902F139077F00B9
:104E300002F1380501EB870051F827204449083872
:104E400090424DD0516821F003018B4202D292680A
:104E50009042F7D1D068E060A2608460D4604046A0
:104E6000BDE8F041FFF706BC95683A4FBD420344E8
:104E70003FD0D068E86043F0010285606260E35093
:104E8000B3E7FF07034407D455F8082CA41A1344CA
:104E9000A068E268C26090602F4A126843F0010087
:104EA000934260608C60B6D32C4B40461968FFF784
:104EB00021FFB0E711184968C90744D49168D26846
:104EC000CA60034443F0010091606060E350A2E7D0
:104ED000142A17D802F15C077F0002F15B05A9E7ED
:104EE000AA104B68012505FA02F213434B600246F3
:104EF000B1E743F001024C610C61E560A5606260BE
:104F0000E35088E7542A06D81A0B02F16F077F0096
:104F100002F16E058EE7B2F5AA7F06D8DA0B02F130
:104F200078077F0002F1770584E740F2545082420F
:104F300006D89A0C02F17D077F0002F17C0579E723
:104F4000FE277E2576E743F001026260E35062E7C8
:104F5000980DFF1FA00DFF1FA011FF1FB818FF1F06
:104F6000044A054B1268506B002808BF1846F03001
:104F7000704700BF280CFF1F2C0CFF1FFFFFFFFF17
:104F800001F0FF01102A2BDB10F0070F08D010F8FA
:104F9000013B013A8B422DD010F0070F42B3F6D1FE
:104FA000F0B441EA012141EA014122F007047FF017
:104FB00000070023F0E80256083C85EA010586EA6E
:104FC000010685FA47F5A3FA87F586FA47F6A5FAAA
:104FD00087F68EB9EED1F0BC01F0FF0102F00702B6
:104FE00032B110F8013B013A83EA010313B1F8D161
:104FF0000020704701387047002D06BF3546033842
:10500000073815F0010F07D1013015F4807F02BF7A
:10501000013015F4C03F0130F0BC0138704700BFCB
:10502000C36C70B505460C464BB153F8240080B1F3
:10503000026843F8242000230361C36070BD21226D
:10504000042100F02FFBE86403460028EDD1002086
:1050500070BD012101FA04F6721D2846920000F08D
:1050600021FB0028F3D044608660E4E731B1C36CD3
:105070004A6853F82200086043F82210704700BFC6
:10508000F0B50C6983B00D46064601F1140E0027F9
:10509000DEF8000081B202FB01310B0C000C02FBB8
:1050A000003389B2013701EB0341BC424EF8041BC7
:1050B0004FEA1343ECDC3BB1AA68944207DA05EBF4
:1050C0008402013453612C61284603B0F0BD696845
:1050D000019301313046FFF7A3FF2A69023205F13F
:1050E0000C01074692000C30FDF772FEF26C696805
:1050F000019B52F82100286042F821503D46DEE72E
:10510000030C1B04B3B90004102310F07F4F04BF3D
:105110000002083310F0704F04BF0001043310F098
:10512000404F04BF80000233002807DB420003D455
:10513000202070470023E8E7581C70471846704746
:10514000036813F0070207D0D90720D49A0720D4A8
:105150009B0803600220704799B209B91B0C10220A
:1051600013F0FF0F04BF1B0A0832190704BF1B0905
:105170000432990704BF9B080232D90704D45B08A4
:1051800001D1202070470132036010467047002093
:1051900070475B0803600120704700BF10B50C46E4
:1051A0000121FFF73DFF01224461026110BD00BFF4
:1051B0002DE9F04F0D691769BD4283B00C461646C4
:1051C00004DA2A4634463D460E461746A36861680F
:1051D00005EB07089845C8BF0131FFF721FF00F133
:1051E000140C0CEB8809CC45009005D263460021D5
:1051F00043F8041B9945FBD806F1140202EB870A19
:1052000004F11403524503EB850E54D2CDF80490FB
:10521000994652F8043B1FFA83FBBBF1000F20D0E4
:1052200000204F466646054600E01E4657F8044BF0
:105230003068A1B283B20BFB0131240C000C4B1976
:105240000BFB040000EB134099B2334641EA0041E6
:10525000BE454FEA104543F8041BE6D8756052F886
:10526000043C5FEA134B20D0DCF800306746184658
:105270004D46002100E037462C88000C0BFB040053
:1052800001449CB23E4644EA014346F8043B786838
:1052900055F8044B83B2240C0BFB043404EB11438C
:1052A000AE454FEA1341E6D87B6092450CF1040C01
:1052B000AFD8DDF80490B8F1000F0BDD59F8043CCD
:1052C000A9F104091BB105E059F8043D13B9B8F17F
:1052D0000108F9D10098C0F8108003B0BDE8F08F44
:1052E00012F003032DE9F041144607462ED10E4675
:1052F000A4101CD0BD6C95B3E3074FF0000806D492
:10530000641014D02868A8B10546E307F8D52A46EA
:1053100031463846FFF74CFFB6B17268FB6C64103B
:1053200053F82210316043F822600646EAD1304635
:10533000BDE8F0812A4629463846FFF739FF286044
:10534000C0F800800546E0E70646D9E75A1E0B4D37
:10535000002355F82220FFF793FE0646C8E70121F7
:105360003846FFF75DFE40F27121012200234161C2
:1053700002610546B8640360BEE700BF788700009D
:105380002DE9F04791460A698B684FEA691404EBEE
:10539000020808F101059D420E468246496804DD77
:1053A0005B009D4201F10101FADC5046FFF738FE37
:1053B000002C00F1140238DD02EB8403002142F8D6
:1053C000041B9342FBD1346906F1140119F01F0943
:1053D00001EB840E21D0C9F1200200240F6807FAE6
:1053E00009FC4CEA04049C4643F8044B51F8044B76
:1053F0008E4524FA02F4F1D8CCF804400CB108F13F
:105400000205DAF84C307268013D53F8221005614C
:10541000316043F82260BDE8F087043B51F8042B6B
:1054200043F8042F8E45F9D8EBE71346CBE700BFCE
:1054300002690B69D21A13D19B001430143119443C
:1054400010B4034401E098420CD253F8044D51F8D3
:10545000042D9442F7D009D301205DF8044B704726
:105460001046704700205DF8044B70474FF0FF3046
:10547000F3E700BF2DE9F8430B690F4611695B1A8A
:10548000002B904617D1890007F1140208F114058A
:105490005318294401E09A425ED253F8046D51F842
:1054A000044DA642F7D060D23B46144647464FF023
:1054B0000109984606E05DDB07F1140502F11404CA
:1054C0004FF000097968FFF7ABFDD8F810303E695E
:1054D000C0F80C9004EB830CA64605EB860700F1A0
:1054E000140400235EF8041B55F8048B8AB213FAE7
:1054F00088F3090C9A1AC1EB184303EB224392B2CA
:1055000042EA0342F44544F8042B4FEA2343E9D826
:10551000AF4217D9A446294651F804EB13FA8EF28C
:10552000131403EB1E4392B242EA03428F424CF83B
:10553000042B4FEA2343EFD8ED433D4425F0030508
:1055400004352C44043C22B954F8043D013E002BA0
:10555000FAD00661BDE8F8830021FFF761FD012262
:10556000002302614361BDE8F8832C464FF0000937
:105570001546A7E73B4607F1140408F11405474612
:105580004FF0010998469DE72DE9F04357EC106B69
:1055900083B0884601213C46C7F30A551746FFF7FA
:1055A0003FFDC4F3130481460DB144F4801401940B
:1055B0001EB302A840F8086DFFF7C2FD002834D1E1
:1055C0009DE80C00C9F81420002B0CBF012102211A
:1055D000C9F81830C9F81010DDB909EB8103A0F241
:1055E0003240C8F800001869FFF78AFDC0EB41108F
:1055F0003860484603B0BDE8F08301A8FFF7A0FD7E
:10560000019BC9F8143001212030C9F81010002D79
:10561000E3D0A5F233450544C0F13500C8F8005089
:105620003860484603B0BDE8F0839DE80C00C0F147
:10563000200103FA01F10A43C3400193C9F8142081
:10564000C2E700BF70B515469AB0146809B1002CC6
:105650001AD100244FF42272ADF80C200094049467
:105660001A464FF6FF761E9B029469460594ADF8E4
:105670000E6000F0F9FF002811DB009B286000227B
:105680001A7004981AB070BD4FF4C1620091049171
:10569000ADF80C20E4DA8B2303600020F2E7002051
:1056A000F0E700BF10B502FB01F1FEF761FC044614
:1056B000D8B150F8042C22F00302043A242A18D856
:1056C000132A14D900231B2A0360436016D9242A05
:1056D0008360C36011BF00F110020361436100F1F8
:1056E00018020023136053609360204610BD0246E9
:1056F000F7E70021FEF76EFF204610BD00F108021B
:10570000EFE700BF02690B69934200F38D802DE93A
:10571000F04F03F1FF3801F1140700F1140B57F8B3
:1057200028205BF828304FEA880483B00132B3FBAD
:10573000F2F90BEB0403009407EB040A0193B9F1AF
:10574000000F39D00025BC46DE462B465CF8046BC2
:10575000DEF80020B4B209FB0455360C2C0C09FB12
:105760000644ADB25B1BA6B213FA82F3C6EB124637
:1057700006EB23469BB243EA0643E2454EF8043B60
:105780004FEA14454FEA2643E0D2009B5BF8033012
:1057900093B9019C231F9B450CD254F8043C4BB990
:1057A000A4F1080302E01A68043B1AB99B4508F10A
:1057B000FF38F8D3C0F810800446FFF739FE002800
:1057C0002EDB09F101095D46002357F8041B286808
:1057D0008AB29A1A090C12FA80F2C1EB104303EB59
:1057E000224391B241EA0341BA4545F8041B4FEA0E
:1057F0002343EAD25BF828200BEB880382B91A1FF7
:1058000093450BD253F8042C42B9083B02E01A68C6
:10581000043B1AB99B4508F1FF38F8D3C4F810804F
:10582000484603B0BDE8F08F00207047FFFFFFFF40
:105830002DE9F04F57EC106B9BB0046C249D009148
:1058400081460592039310EE10AABB4654B1426CF8
:10585000626001239340A3602146FFF707FC002309
:10586000C9F84030BBF1000F5C4634DB00232B60ED
:10587000A14B1A462340934216D0002200235046E3
:105880005946FEF7EBFA56465F46804648B3039A00
:1058900001231360259B002B00F0BE809748186001
:1058A00001381BB0BDE8F08F039A42F20F7313600A
:1058B000BAF1000F00F09A809148259B002BF0D0A0
:1058C000C378002B00F0AA8000F10803259A13602A
:1058D0001BB0BDE8F08F01232BF000442B60A346E2
:1058E000C6E718AA19A947EC106B4846FFF74CFE0B
:1058F000250D0A9040F08380189D199E2E4406F2D3
:105900003243202B40F38882C3F1400306F2124059
:105910009C402AFA00F02043FDF7C2FF0123741EC9
:10592000A1F1F8710F930022764BFDF77BFE6CA37B
:10593000D3E90023FEF72AF86BA3D3E90023FDF790
:1059400073FE064620460F46FDF7BAFF68A3D3E96B
:105950000023FEF71BF802460B4630463946FDF79A
:1059600063FE06460F4602F071FA002204900023FF
:1059700030463946FEF77CFA002840F02882049E23
:10598000162E00F22182604B03EBC603D3E900011F
:1059900052465B46FEF78AFA002800F04282731EE8
:1059A000049300230D932D1BB5F1010800F12A8209
:1059B00000230793049B002BC0F21B8298440C9396
:1059C00000230693009B092B2AD8052B40F344861D
:1059D000043B00930026009B023B032B00F223862E
:1059E000DFE813F02B03240236035004444B474AEC
:1059F000C4F31300002814BF184610465DE7CBF32C
:105A0000130343F07F51A5F2FF345046CDF83C809C
:105A100041F44011189D86E73D4842E7C31C55E715
:105A20000021C9F8441048460C460091FFF7F8FAE7
:105A30004FF0FF3308930E9301230990C9F84000FB
:105A400005940B93199B002BC0F2D080049A0E2A68
:105A500000F3CC802C4B03EBC20393ED007B059B42
:105A6000002B8DED007BC0F2FE8256465F46DDE9DD
:105A700000AB304652465B463946FEF7B1F802F0BD
:105A8000E5F90446FDF71CFF52465B46FDF77EFF35
:105A90000B46024639463046FDF7C4FD099D04F128
:105AA00030032B70089B012B06460F4605F10105BC
:105AB00061D00022174BFDF769FF00220023064644
:105AC0000F46FEF7CBF900287DD1CDF81490DDF814
:105AD00020A0DDF824B0DDE9008928E0AFF30080E4
